{
  "address": "0x6fCC03Bd5d18e875a7E09Fc90ab41D66be1f6E2c",
  "abi": [
    {
      "inputs": [],
      "stateMutability": "nonpayable",
      "type": "constructor"
    },
    {
      "inputs": [],
      "name": "InvalidShortString",
      "type": "error"
    },
    {
      "inputs": [
        {
          "internalType": "string",
          "name": "str",
          "type": "string"
        }
      ],
      "name": "StringTooLong",
      "type": "error"
    },
    {
      "anonymous": false,
      "inputs": [
        {
          "indexed": true,
          "internalType": "address",
          "name": "owner",
          "type": "address"
        },
        {
          "indexed": true,
          "internalType": "address",
          "name": "spender",
          "type": "address"
        },
        {
          "indexed": false,
          "internalType": "uint256",
          "name": "value",
          "type": "uint256"
        }
      ],
      "name": "Approval",
      "type": "event"
    },
    {
      "anonymous": false,
      "inputs": [
        {
          "indexed": true,
          "internalType": "address",
          "name": "delegator",
          "type": "address"
        },
        {
          "indexed": true,
          "internalType": "address",
          "name": "fromDelegate",
          "type": "address"
        },
        {
          "indexed": true,
          "internalType": "address",
          "name": "toDelegate",
          "type": "address"
        }
      ],
      "name": "DelegateChanged",
      "type": "event"
    },
    {
      "anonymous": false,
      "inputs": [
        {
          "indexed": true,
          "internalType": "address",
          "name": "delegate",
          "type": "address"
        },
        {
          "indexed": false,
          "internalType": "uint256",
          "name": "previousBalance",
          "type": "uint256"
        },
        {
          "indexed": false,
          "internalType": "uint256",
          "name": "newBalance",
          "type": "uint256"
        }
      ],
      "name": "DelegateVotesChanged",
      "type": "event"
    },
    {
      "anonymous": false,
      "inputs": [],
      "name": "EIP712DomainChanged",
      "type": "event"
    },
    {
      "anonymous": false,
      "inputs": [
        {
          "indexed": true,
          "internalType": "bytes32",
          "name": "role",
          "type": "bytes32"
        },
        {
          "indexed": true,
          "internalType": "bytes32",
          "name": "previousAdminRole",
          "type": "bytes32"
        },
        {
          "indexed": true,
          "internalType": "bytes32",
          "name": "newAdminRole",
          "type": "bytes32"
        }
      ],
      "name": "RoleAdminChanged",
      "type": "event"
    },
    {
      "anonymous": false,
      "inputs": [
        {
          "indexed": true,
          "internalType": "bytes32",
          "name": "role",
          "type": "bytes32"
        },
        {
          "indexed": true,
          "internalType": "address",
          "name": "account",
          "type": "address"
        },
        {
          "indexed": true,
          "internalType": "address",
          "name": "sender",
          "type": "address"
        }
      ],
      "name": "RoleGranted",
      "type": "event"
    },
    {
      "anonymous": false,
      "inputs": [
        {
          "indexed": true,
          "internalType": "bytes32",
          "name": "role",
          "type": "bytes32"
        },
        {
          "indexed": true,
          "internalType": "address",
          "name": "account",
          "type": "address"
        },
        {
          "indexed": true,
          "internalType": "address",
          "name": "sender",
          "type": "address"
        }
      ],
      "name": "RoleRevoked",
      "type": "event"
    },
    {
      "anonymous": false,
      "inputs": [
        {
          "indexed": false,
          "internalType": "uint256",
          "name": "id",
          "type": "uint256"
        }
      ],
      "name": "Snapshot",
      "type": "event"
    },
    {
      "anonymous": false,
      "inputs": [
        {
          "indexed": true,
          "internalType": "address",
          "name": "from",
          "type": "address"
        },
        {
          "indexed": true,
          "internalType": "address",
          "name": "to",
          "type": "address"
        },
        {
          "indexed": false,
          "internalType": "uint256",
          "name": "value",
          "type": "uint256"
        }
      ],
      "name": "Transfer",
      "type": "event"
    },
    {
      "inputs": [],
      "name": "CLOCK_MODE",
      "outputs": [
        {
          "internalType": "string",
          "name": "",
          "type": "string"
        }
      ],
      "stateMutability": "view",
      "type": "function"
    },
    {
      "inputs": [],
      "name": "DEFAULT_ADMIN_ROLE",
      "outputs": [
        {
          "internalType": "bytes32",
          "name": "",
          "type": "bytes32"
        }
      ],
      "stateMutability": "view",
      "type": "function"
    },
    {
      "inputs": [],
      "name": "DOMAIN_SEPARATOR",
      "outputs": [
        {
          "internalType": "bytes32",
          "name": "",
          "type": "bytes32"
        }
      ],
      "stateMutability": "view",
      "type": "function"
    },
    {
      "inputs": [],
      "name": "MINTER_ROLE",
      "outputs": [
        {
          "internalType": "bytes32",
          "name": "",
          "type": "bytes32"
        }
      ],
      "stateMutability": "view",
      "type": "function"
    },
    {
      "inputs": [],
      "name": "SNAPSHOT_ROLE",
      "outputs": [
        {
          "internalType": "bytes32",
          "name": "",
          "type": "bytes32"
        }
      ],
      "stateMutability": "view",
      "type": "function"
    },
    {
      "inputs": [
        {
          "internalType": "address",
          "name": "owner",
          "type": "address"
        },
        {
          "internalType": "address",
          "name": "spender",
          "type": "address"
        }
      ],
      "name": "allowance",
      "outputs": [
        {
          "internalType": "uint256",
          "name": "",
          "type": "uint256"
        }
      ],
      "stateMutability": "view",
      "type": "function"
    },
    {
      "inputs": [
        {
          "internalType": "address",
          "name": "spender",
          "type": "address"
        },
        {
          "internalType": "uint256",
          "name": "amount",
          "type": "uint256"
        }
      ],
      "name": "approve",
      "outputs": [
        {
          "internalType": "bool",
          "name": "",
          "type": "bool"
        }
      ],
      "stateMutability": "nonpayable",
      "type": "function"
    },
    {
      "inputs": [
        {
          "internalType": "address",
          "name": "account",
          "type": "address"
        }
      ],
      "name": "balanceOf",
      "outputs": [
        {
          "internalType": "uint256",
          "name": "",
          "type": "uint256"
        }
      ],
      "stateMutability": "view",
      "type": "function"
    },
    {
      "inputs": [
        {
          "internalType": "address",
          "name": "account",
          "type": "address"
        },
        {
          "internalType": "uint256",
          "name": "snapshotId",
          "type": "uint256"
        }
      ],
      "name": "balanceOfAt",
      "outputs": [
        {
          "internalType": "uint256",
          "name": "",
          "type": "uint256"
        }
      ],
      "stateMutability": "view",
      "type": "function"
    },
    {
      "inputs": [
        {
          "internalType": "address",
          "name": "account",
          "type": "address"
        },
        {
          "internalType": "uint32",
          "name": "pos",
          "type": "uint32"
        }
      ],
      "name": "checkpoints",
      "outputs": [
        {
          "components": [
            {
              "internalType": "uint32",
              "name": "fromBlock",
              "type": "uint32"
            },
            {
              "internalType": "uint224",
              "name": "votes",
              "type": "uint224"
            }
          ],
          "internalType": "struct ERC20Votes.Checkpoint",
          "name": "",
          "type": "tuple"
        }
      ],
      "stateMutability": "view",
      "type": "function"
    },
    {
      "inputs": [],
      "name": "clock",
      "outputs": [
        {
          "internalType": "uint48",
          "name": "",
          "type": "uint48"
        }
      ],
      "stateMutability": "view",
      "type": "function"
    },
    {
      "inputs": [],
      "name": "decimals",
      "outputs": [
        {
          "internalType": "uint8",
          "name": "",
          "type": "uint8"
        }
      ],
      "stateMutability": "view",
      "type": "function"
    },
    {
      "inputs": [
        {
          "internalType": "address",
          "name": "spender",
          "type": "address"
        },
        {
          "internalType": "uint256",
          "name": "subtractedValue",
          "type": "uint256"
        }
      ],
      "name": "decreaseAllowance",
      "outputs": [
        {
          "internalType": "bool",
          "name": "",
          "type": "bool"
        }
      ],
      "stateMutability": "nonpayable",
      "type": "function"
    },
    {
      "inputs": [
        {
          "internalType": "address",
          "name": "delegatee",
          "type": "address"
        }
      ],
      "name": "delegate",
      "outputs": [],
      "stateMutability": "nonpayable",
      "type": "function"
    },
    {
      "inputs": [
        {
          "internalType": "address",
          "name": "delegatee",
          "type": "address"
        },
        {
          "internalType": "uint256",
          "name": "nonce",
          "type": "uint256"
        },
        {
          "internalType": "uint256",
          "name": "expiry",
          "type": "uint256"
        },
        {
          "internalType": "uint8",
          "name": "v",
          "type": "uint8"
        },
        {
          "internalType": "bytes32",
          "name": "r",
          "type": "bytes32"
        },
        {
          "internalType": "bytes32",
          "name": "s",
          "type": "bytes32"
        }
      ],
      "name": "delegateBySig",
      "outputs": [],
      "stateMutability": "nonpayable",
      "type": "function"
    },
    {
      "inputs": [
        {
          "internalType": "address",
          "name": "account",
          "type": "address"
        }
      ],
      "name": "delegates",
      "outputs": [
        {
          "internalType": "address",
          "name": "",
          "type": "address"
        }
      ],
      "stateMutability": "view",
      "type": "function"
    },
    {
      "inputs": [],
      "name": "eip712Domain",
      "outputs": [
        {
          "internalType": "bytes1",
          "name": "fields",
          "type": "bytes1"
        },
        {
          "internalType": "string",
          "name": "name",
          "type": "string"
        },
        {
          "internalType": "string",
          "name": "version",
          "type": "string"
        },
        {
          "internalType": "uint256",
          "name": "chainId",
          "type": "uint256"
        },
        {
          "internalType": "address",
          "name": "verifyingContract",
          "type": "address"
        },
        {
          "internalType": "bytes32",
          "name": "salt",
          "type": "bytes32"
        },
        {
          "internalType": "uint256[]",
          "name": "extensions",
          "type": "uint256[]"
        }
      ],
      "stateMutability": "view",
      "type": "function"
    },
    {
      "inputs": [
        {
          "internalType": "address",
          "name": "token",
          "type": "address"
        },
        {
          "internalType": "uint256",
          "name": "amount",
          "type": "uint256"
        }
      ],
      "name": "flashFee",
      "outputs": [
        {
          "internalType": "uint256",
          "name": "",
          "type": "uint256"
        }
      ],
      "stateMutability": "view",
      "type": "function"
    },
    {
      "inputs": [
        {
          "internalType": "contract IERC3156FlashBorrower",
          "name": "receiver",
          "type": "address"
        },
        {
          "internalType": "address",
          "name": "token",
          "type": "address"
        },
        {
          "internalType": "uint256",
          "name": "amount",
          "type": "uint256"
        },
        {
          "internalType": "bytes",
          "name": "data",
          "type": "bytes"
        }
      ],
      "name": "flashLoan",
      "outputs": [
        {
          "internalType": "bool",
          "name": "",
          "type": "bool"
        }
      ],
      "stateMutability": "nonpayable",
      "type": "function"
    },
    {
      "inputs": [
        {
          "internalType": "uint256",
          "name": "timepoint",
          "type": "uint256"
        }
      ],
      "name": "getPastTotalSupply",
      "outputs": [
        {
          "internalType": "uint256",
          "name": "",
          "type": "uint256"
        }
      ],
      "stateMutability": "view",
      "type": "function"
    },
    {
      "inputs": [
        {
          "internalType": "address",
          "name": "account",
          "type": "address"
        },
        {
          "internalType": "uint256",
          "name": "timepoint",
          "type": "uint256"
        }
      ],
      "name": "getPastVotes",
      "outputs": [
        {
          "internalType": "uint256",
          "name": "",
          "type": "uint256"
        }
      ],
      "stateMutability": "view",
      "type": "function"
    },
    {
      "inputs": [
        {
          "internalType": "bytes32",
          "name": "role",
          "type": "bytes32"
        }
      ],
      "name": "getRoleAdmin",
      "outputs": [
        {
          "internalType": "bytes32",
          "name": "",
          "type": "bytes32"
        }
      ],
      "stateMutability": "view",
      "type": "function"
    },
    {
      "inputs": [
        {
          "internalType": "address",
          "name": "account",
          "type": "address"
        }
      ],
      "name": "getVotes",
      "outputs": [
        {
          "internalType": "uint256",
          "name": "",
          "type": "uint256"
        }
      ],
      "stateMutability": "view",
      "type": "function"
    },
    {
      "inputs": [
        {
          "internalType": "bytes32",
          "name": "role",
          "type": "bytes32"
        },
        {
          "internalType": "address",
          "name": "account",
          "type": "address"
        }
      ],
      "name": "grantRole",
      "outputs": [],
      "stateMutability": "nonpayable",
      "type": "function"
    },
    {
      "inputs": [
        {
          "internalType": "bytes32",
          "name": "role",
          "type": "bytes32"
        },
        {
          "internalType": "address",
          "name": "account",
          "type": "address"
        }
      ],
      "name": "hasRole",
      "outputs": [
        {
          "internalType": "bool",
          "name": "",
          "type": "bool"
        }
      ],
      "stateMutability": "view",
      "type": "function"
    },
    {
      "inputs": [
        {
          "internalType": "address",
          "name": "spender",
          "type": "address"
        },
        {
          "internalType": "uint256",
          "name": "addedValue",
          "type": "uint256"
        }
      ],
      "name": "increaseAllowance",
      "outputs": [
        {
          "internalType": "bool",
          "name": "",
          "type": "bool"
        }
      ],
      "stateMutability": "nonpayable",
      "type": "function"
    },
    {
      "inputs": [
        {
          "internalType": "address",
          "name": "token",
          "type": "address"
        }
      ],
      "name": "maxFlashLoan",
      "outputs": [
        {
          "internalType": "uint256",
          "name": "",
          "type": "uint256"
        }
      ],
      "stateMutability": "view",
      "type": "function"
    },
    {
      "inputs": [
        {
          "internalType": "address",
          "name": "to",
          "type": "address"
        },
        {
          "internalType": "uint256",
          "name": "amount",
          "type": "uint256"
        }
      ],
      "name": "mint",
      "outputs": [],
      "stateMutability": "nonpayable",
      "type": "function"
    },
    {
      "inputs": [],
      "name": "name",
      "outputs": [
        {
          "internalType": "string",
          "name": "",
          "type": "string"
        }
      ],
      "stateMutability": "view",
      "type": "function"
    },
    {
      "inputs": [
        {
          "internalType": "address",
          "name": "owner",
          "type": "address"
        }
      ],
      "name": "nonces",
      "outputs": [
        {
          "internalType": "uint256",
          "name": "",
          "type": "uint256"
        }
      ],
      "stateMutability": "view",
      "type": "function"
    },
    {
      "inputs": [
        {
          "internalType": "address",
          "name": "account",
          "type": "address"
        }
      ],
      "name": "numCheckpoints",
      "outputs": [
        {
          "internalType": "uint32",
          "name": "",
          "type": "uint32"
        }
      ],
      "stateMutability": "view",
      "type": "function"
    },
    {
      "inputs": [
        {
          "internalType": "address",
          "name": "owner",
          "type": "address"
        },
        {
          "internalType": "address",
          "name": "spender",
          "type": "address"
        },
        {
          "internalType": "uint256",
          "name": "value",
          "type": "uint256"
        },
        {
          "internalType": "uint256",
          "name": "deadline",
          "type": "uint256"
        },
        {
          "internalType": "uint8",
          "name": "v",
          "type": "uint8"
        },
        {
          "internalType": "bytes32",
          "name": "r",
          "type": "bytes32"
        },
        {
          "internalType": "bytes32",
          "name": "s",
          "type": "bytes32"
        }
      ],
      "name": "permit",
      "outputs": [],
      "stateMutability": "nonpayable",
      "type": "function"
    },
    {
      "inputs": [
        {
          "internalType": "bytes32",
          "name": "role",
          "type": "bytes32"
        },
        {
          "internalType": "address",
          "name": "account",
          "type": "address"
        }
      ],
      "name": "renounceRole",
      "outputs": [],
      "stateMutability": "nonpayable",
      "type": "function"
    },
    {
      "inputs": [
        {
          "internalType": "bytes32",
          "name": "role",
          "type": "bytes32"
        },
        {
          "internalType": "address",
          "name": "account",
          "type": "address"
        }
      ],
      "name": "revokeRole",
      "outputs": [],
      "stateMutability": "nonpayable",
      "type": "function"
    },
    {
      "inputs": [],
      "name": "snapshot",
      "outputs": [],
      "stateMutability": "nonpayable",
      "type": "function"
    },
    {
      "inputs": [
        {
          "internalType": "bytes4",
          "name": "interfaceId",
          "type": "bytes4"
        }
      ],
      "name": "supportsInterface",
      "outputs": [
        {
          "internalType": "bool",
          "name": "",
          "type": "bool"
        }
      ],
      "stateMutability": "view",
      "type": "function"
    },
    {
      "inputs": [],
      "name": "symbol",
      "outputs": [
        {
          "internalType": "string",
          "name": "",
          "type": "string"
        }
      ],
      "stateMutability": "view",
      "type": "function"
    },
    {
      "inputs": [],
      "name": "totalSupply",
      "outputs": [
        {
          "internalType": "uint256",
          "name": "",
          "type": "uint256"
        }
      ],
      "stateMutability": "view",
      "type": "function"
    },
    {
      "inputs": [
        {
          "internalType": "uint256",
          "name": "snapshotId",
          "type": "uint256"
        }
      ],
      "name": "totalSupplyAt",
      "outputs": [
        {
          "internalType": "uint256",
          "name": "",
          "type": "uint256"
        }
      ],
      "stateMutability": "view",
      "type": "function"
    },
    {
      "inputs": [
        {
          "internalType": "address",
          "name": "to",
          "type": "address"
        },
        {
          "internalType": "uint256",
          "name": "amount",
          "type": "uint256"
        }
      ],
      "name": "transfer",
      "outputs": [
        {
          "internalType": "bool",
          "name": "",
          "type": "bool"
        }
      ],
      "stateMutability": "nonpayable",
      "type": "function"
    },
    {
      "inputs": [
        {
          "internalType": "address",
          "name": "from",
          "type": "address"
        },
        {
          "internalType": "address",
          "name": "to",
          "type": "address"
        },
        {
          "internalType": "uint256",
          "name": "amount",
          "type": "uint256"
        }
      ],
      "name": "transferFrom",
      "outputs": [
        {
          "internalType": "bool",
          "name": "",
          "type": "bool"
        }
      ],
      "stateMutability": "nonpayable",
      "type": "function"
    }
  ],
  "transactionHash": "0xa5dd5207e3a6c28f5741f8b5cf7644862cd77cd23de91835e2272b98d0f1babf",
  "args": [],
  "numDeployments": 1,
  "solcInputHash": "005ded89e3ed0349ad2270743ee3c4a8",
  "bytecode": "0x610160604052346200021b57620000156200028d565b6200001f6200028d565b906200002a62000263565b91602092644655454c4960d81b848201526200004562000278565b603160f81b858201908152835190939192916001600160401b03821162000215576200007e8262000078600354620002d0565b6200030d565b8690601f83116001146200018557620000b89392916000918362000179575b50508160011b916000199060031b1c19161760035562000471565b620000c38362000711565b92610120938452620000d58262000824565b94610140958652815191012060e052519020916101009283524660a052620000fc620009d5565b6080523060c0526200010e3362000564565b6200011933620005f7565b620001243362000aa7565b6200012f33620006af565b604051916137fc9384620013f5853960805184612ca3015260a05184612d5e015260c05184612c6d015260e05184612cf201525183612d1801525182610c6401525181610c8d0152f35b0151905038806200009d565b6003600052601f19831691907fc2575a0e9e593c00f959f8c92f12db2869c3395a3b0502d05e2516446f71f85b9260005b8a828210620001fe575050916001939185620000b897969410620001e4575b505050811b0160035562000471565b015160001960f88460031b161c19169055388080620001d5565b6001859682939686015181550195019301620001b6565b62000220565b600080fd5b634e487b7160e01b600052604160045260246000fd5b604081019081106001600160401b038211176200021557604052565b60405190620002618262000236565b565b60405190620002728262000236565b60058252565b60405190620002878262000236565b60018252565b604051906200029c8262000236565b600f82526e233ab2b634902220a7902a37b5b2b760891b6020830152565b634e487b7160e01b600052601160045260246000fd5b90600182811c9216801562000302575b6020831014620002ec57565b634e487b7160e01b600052602260045260246000fd5b91607f1691620002e0565b601f81116200031a575050565b6000906003825260208220906020601f850160051c830194106200035b575b601f0160051c01915b8281106200034f57505050565b81815560010162000342565b909250829062000339565b601f811162000373575050565b6000906004825260208220906020601f850160051c83019410620003b4575b601f0160051c01915b828110620003a857505050565b8181556001016200039b565b909250829062000392565b601f8111620003cc575050565b600090600a825260208220906020601f850160051c830194106200040d575b601f0160051c01915b8281106200040157505050565b818155600101620003f4565b9092508290620003eb565b601f811162000425575050565b600090600b825260208220906020601f850160051c8301941062000466575b601f0160051c01915b8281106200045a57505050565b8181556001016200044d565b909250829062000444565b80519091906001600160401b03811162000215576200049d8162000497600454620002d0565b62000366565b602080601f8311600114620004dc5750819293600092620004d0575b50508160011b916000199060031b1c191617600455565b015190503880620004b9565b6004600052601f198316949091907f8a35acfbc15ff81a39ae7d344fd709f28e8600b4aa8c65c6b64bfe7fe36bd19b926000905b8782106200054b57505083600195961062000531575b505050811b01600455565b015160001960f88460031b161c1916905538808062000526565b8060018596829496860151815501950193019062000510565b6001600160a01b03811660009081527fec8156718a8372b1db44bb411437d0870f3e3790d4a08526d024ce1b0b668f6b602052604081205460ff1615620005a9575050565b8080526009602090815260408083206001600160a01b038516600090815292529020805460ff1916600117905533916001600160a01b03169060008051602062004bf18339815191528180a4565b6001600160a01b03811660009081527f74adca16b85aafc20345e70c697853a2b0939989b7cd0487e7aa3c40ce97d60c602052604081207f5fdbd35e8da83ee755d5e62a539e5ed7f47126abede0b8b10f9ea43dc6eed07f9060ff905b5416156200066157505050565b8082526009602090815260408084206001600160a01b038616600090815292529020805460ff1916600117905533926001600160a01b03169160008051602062004bf18339815191529080a4565b6001600160a01b03811660009081527fd5d09b8f3165a736d25b1a14611612ac91830c1b82012b1c33b2dac7c90a0649602052604081207f9f2df0fed2c77648de5860a4cc508cd0818c85b8b8a1ab4ceeef8d981c8956a69060ff9062000654565b908151602080821060001462000732575050906200072f9062000958565b90565b6001600160401b0382116200021557620007598262000753600a54620002d0565b620003bf565b80601f83116001146200079957508192936000926200078d575b50508160011b916000199060031b1c191617600a5560ff90565b01519050388062000773565b600a600052601f198316949091907fc65a7bb8d6351c1cf70c95a316cc6a92839c986682d98bc35f958f4883f9d2a8926000905b8782106200080b575050836001959610620007f1575b505050811b01600a5560ff90565b015160001960f88460031b161c19169055388080620007e3565b80600185968294968601518155019501930190620007cd565b908151602080821060001462000842575050906200072f9062000958565b6001600160401b0382116200021557620008698262000863600b54620002d0565b62000418565b80601f8311600114620008a957508192936000926200089d575b50508160011b916000199060031b1c191617600b5560ff90565b01519050388062000883565b600b600052601f198316949091907f0175b7a638427703f0dbe7bb9bbf987a2551717b34e79f33b5b1008d1fa01db9926000905b8782106200091b57505083600195961062000901575b505050811b01600b5560ff90565b015160001960f88460031b161c19169055388080620008f3565b80600185968294968601518155019501930190620008dd565b60208151910151906020811062000949575090565b6000199060200360031b1b1690565b601f81511162000973576200096d8162000934565b90511790565b6040519063305a27a960e01b82528160208060048301528251908160248401526000935b828510620009bb575050604492506000838284010152601f80199101168101030190fd5b848101820151868601604401529381019385935062000997565b60e051610100516040519060208201927f8b73c3c69bb8fe3d512ecc4cf759cc79239f7b179b0ffacaa9a75d522b39400f8452604083015260608201524660808201523060a082015260a0815260c0810181811060018060401b03821117620002155760405251902090565b1562000a4957565b60405162461bcd60e51b815260206004820152603060248201527f4552433230566f7465733a20746f74616c20737570706c79207269736b73206f60448201526f766572666c6f77696e6720766f74657360801b6064820152608490fd5b6001600160a01b03811690811562000c4f57816000526005602052604060002060006020526040600020546008548062000ae184620012a3565b1062000c2c575b505050600254916008548062000afd62001272565b1062000bb8575b5062000b92925062000b2162000b1c60025462000c94565b600255565b6001600160a01b038216600090815260208190526040902069152d02c7e14af6800000815401905560007fddf252ad1be2c89b69c2b068fc378daa952ba7f163c4a11628f55a4df523b3ef6040518062000b89819069152d02c7e14af6800000602083019252565b0390a3620012ca565b60025462000baa906001600160e01b03101562000a41565b62000bb462000e1f565b5050565b600654680100000000000000009182821015620002155762000be582600162000bfe940160065562000ce7565b90919082549060031b91821b91600019901b1916179055565b60075490811015620002155762000b929362000be582600162000c25940160075562000d19565b3862000b04565b8262000c3f60019262000c469562001246565b0162001246565b38808062000ae8565b60405162461bcd60e51b815260206004820152601f60248201527f45524332303a206d696e7420746f20746865207a65726f2061646472657373006044820152606490fd5b9069152d02c7e14af6800000820180921162000cac57565b620002ba565b604080519192919081016001600160401b038111828210176200021557604052602081935463ffffffff81168352811c910152565b60065481101562000d0357600660005260206000200190600090565b634e487b7160e01b600052603260045260246000fd5b60075481101562000d0357600760005260206000200190600090565b805482101562000d035760005260206000200190600090565b60105490680100000000000000008210156200021557600182018060105582101562000d03576010600052805160209182015190911b63ffffffff191663ffffffff91909116177f1b6847dc741a1b0cd08d278845f9d819d87b734759afb55fe2de5cb82a9ae67290910155565b805468010000000000000000811015620002155762000de19160018201815562000d35565b62000e0957815160209283015190921b63ffffffff191663ffffffff92909216919091179055565b634e487b7160e01b600052600060045260246000fd5b60105490811590811562000f555762000e3762000252565b6000815260006020820152925b602084015162000e64906001600160e01b03165b6001600160e01b031690565b9362000e7085620013c3565b9315908162000f2e575b501562000ec657620002619062000eaf62000e95856200110e565b60106000529160008051602062004c118339815191520190565b9063ffffffff82549181199060201b169116179055565b506200026162000eef62000ee962000ede4362001178565b65ffffffffffff1690565b620011e0565b62000f2862000efe856200110e565b62000f1862000f0c62000252565b63ffffffff9094168452565b6001600160e01b03166020830152565b62000d4e565b5163ffffffff16905063ffffffff62000f4b62000ede4362001178565b9116143862000e7a565b601060005262000f7c60008051602062004c11833981519152840162000cb2565b62000cb2565b9262000e44565b8054918215918215620010835762000f9a62000252565b6000815260006020820152935b602085015162000fc0906001600160e01b031662000e58565b9462000fcc86620013db565b941590816200105c575b5015620010035762000eaf620002619262000ff1866200110e565b92600019019060005260206000200190565b5062000261906200101c62000ee962000ede4362001178565b90620010566200102c866200110e565b620010466200103a62000252565b63ffffffff9095168552565b6001600160e01b03166020840152565b62000dbc565b5163ffffffff16905063ffffffff6200107962000ede4362001178565b9116143862000fd6565b6200109d62000f7660001986018360005260206000200190565b9362000fa7565b8054918215918215620010ed57620010bb62000252565b6000815260006020820152935b6020850151620010e1906001600160e01b031662000e58565b9462000fcc86620013c3565b6200110762000f7660001986018360005260206000200190565b93620010c8565b6001600160e01b039081811162001123571690565b60405162461bcd60e51b815260206004820152602760248201527f53616665436173743a2076616c756520646f65736e27742066697420696e20326044820152663234206269747360c81b6064820152608490fd5b65ffffffffffff908181116200118c571690565b60405162461bcd60e51b815260206004820152602660248201527f53616665436173743a2076616c756520646f65736e27742066697420696e203460448201526538206269747360d01b6064820152608490fd5b63ffffffff90818111620011f2571690565b60405162461bcd60e51b815260206004820152602660248201527f53616665436173743a2076616c756520646f65736e27742066697420696e203360448201526532206269747360d01b6064820152608490fd5b908154916801000000000000000083101562000215578262000be5916001620002619501815562000d35565b60065480620012815750600090565b600019810190811162000cac57620012999062000ce7565b90549060031b1c90565b805480620012b2575050600090565b600019810190811162000cac57620012999162000d35565b600e6020527fe710864318d4a32f37d6ce54cb3fadbef648dd12d8dbdf53973564d56b7f881c546001600160a01b0391821660009081526040812054831692909116908183141580620013ba575b6200132257505050565b816200137b575b505080620013345750565b6001600160a01b0381166000908152600f6020526040902060008051602062004c31833981519152906200136890620010a4565b60408051928352602083019190915290a2565b620013a16040828460008051602062004c318339815191529452600f6020522062000f83565b60408051928352602083019190915290a2388062001329565b50600162001318565b69152d02c7e14af6800000810180911162000cac5790565b69152d02c7e14af67fffff19810190811162000cac579056fe6080604052600436101561001257600080fd5b60003560e01c806301ffc9a7146102a757806306fdde03146102a2578063095ea7b31461029d57806318160ddd1461029857806323b872dd14610293578063248a9ca31461028e5780632f2ff15d14610289578063313ce567146102845780633644e5151461027f57806336568abe1461027a57806339509351146102755780633a46b1a81461027057806340c10f191461026b5780634bf5d7e9146102665780634ee2cd7e14610261578063587cde1e1461025c5780635c19a95c146102575780635cffe9de14610252578063613255ab1461024d5780636fcfff45146102485780637028e2cd1461024357806370a082311461023e5780637ecebe001461023957806384b0196e146102345780638e539e8c1461022f57806391d148541461022a57806391ddadf41461022557806395d89b41146102205780639711715a1461021b578063981b24d0146102165780639ab24eb014610211578063a217fddf1461020c578063a457c2d714610207578063a9059cbb14610202578063c3cda520146101fd578063d505accf146101f8578063d5391393146101f3578063d547741f146101ee578063d9d98ce4146101e9578063dd62ed3e146101e45763f1127ed8146101df57600080fd5b61156a565b611517565b6114f0565b6114ae565b611485565b611353565b61123d565b6111f3565b611147565b61112b565b6110c8565b611090565b610f78565b610ed4565b610ea8565b610e64565b610d41565b610c49565b610c0c565b610bcf565b610ba6565b610b5b565b610b34565b610aad565b610a87565b610a48565b6109e6565b610934565b610844565b6106eb565b61069b565b610603565b6105e0565b6105c4565b610511565b6104e2565b6104a2565b610484565b61044f565b61035e565b346102fd5760203660031901126102fd5760043563ffffffff60e01b81168091036102fd57602090637965db0b60e01b81149081156102ec575b506040519015158152f35b6301ffc9a760e01b149050386102e1565b600080fd5b60005b8381106103155750506000910152565b8181015183820152602001610305565b9060209161033e81518092818552858086019101610302565b601f01601f1916010190565b90602061035b928181520190610325565b90565b346102fd5760008060031936011261043b57604051816003546103808161185c565b8084529060019081811690811561041357506001146103ba575b6103b6846103aa818803826117c7565b6040519182918261034a565b0390f35b60038352602094507fc2575a0e9e593c00f959f8c92f12db2869c3395a3b0502d05e2516446f71f85b5b82841061040057505050816103b6936103aa928201019361039a565b80548585018701529285019281016103e4565b6103b696506103aa9450602092508593915060ff191682840152151560051b8201019361039a565b80fd5b6001600160a01b038116036102fd57565b346102fd5760403660031901126102fd5761047960043561046f8161043e565b6024359033611aae565b602060405160018152f35b346102fd5760003660031901126102fd576020600254604051908152f35b346102fd5760603660031901126102fd576104796004356104c28161043e565b6024356104ce8161043e565b604435916104dd833383611bcc565b611a2c565b346102fd5760203660031901126102fd5760043560005260096020526020600160406000200154604051908152f35b346102fd5760403660031901126102fd576004356024356105318161043e565b600091808352600960205261054c600160408520015461168e565b808352600960205260ff610563836040862061160f565b54161561056e578280f35b8083526009602052610583826040852061160f565b805460ff1916600117905533916001600160a01b0316907f2f8788117e7eff1d82e926ec794901d17c78024a50270940304540a733656f0d8480a438808280f35b346102fd5760003660031901126102fd57602060405160128152f35b346102fd5760003660031901126102fd5760206105fb612c6a565b604051908152f35b346102fd5760403660031901126102fd576024356106208161043e565b336001600160a01b0382160361063e5761063c906004356117e8565b005b60405162461bcd60e51b815260206004820152602f60248201527f416363657373436f6e74726f6c3a2063616e206f6e6c792072656e6f756e636560448201526e103937b632b9903337b91039b2b63360891b6064820152608490fd5b346102fd5760403660031901126102fd576004356106b88161043e565b3360005260016020526106cf81604060002061160f565b5460243581018091116106e6576104799133611aae565b611896565b346102fd5760403660031901126102fd576004356107088161043e565b6024359061072765ffffffffffff61071f4361314c565b168310612138565b6001600160a01b03166000908152600f60205260408120805492909183600581116107f3575b50905b83821061079e57505081610777575050602060005b6040516001600160e01b039091168152f35b61079261079991602093600019019060005260206000200190565b5460201c90565b610765565b90926107aa8185612f7c565b90818363ffffffff6107d06107c6848960005260206000200190565b5463ffffffff1690565b1611156107e1575050925b90610750565b9094506107ee91506118ac565b6107db565b8061080361080992969396612f91565b90611c6c565b908263ffffffff6108246107c6858860005260206000200190565b1611156108345750925b3861074d565b935061083f906118ac565b61082e565b346102fd5760403660031901126102fd576004356108618161043e565b60243561086c611626565b6001600160a01b0382169182156108ef57818161063c9461088f6108d494613218565b6108a361089e846002546118ba565b600255565b6108ac826115f5565b80548401905560405183815260009060008051602061376783398151915290602090a361346d565b6002546108ea906001600160e01b031015613538565b612502565b60405162461bcd60e51b815260206004820152601f60248201527f45524332303a206d696e7420746f20746865207a65726f2061646472657373006044820152606490fd5b346102fd5760003660031901126102fd574365ffffffffffff6109564361314c565b16036109a1576103b660405161096b81611771565b601d81527f6d6f64653d626c6f636b6e756d6265722666726f6d3d64656661756c7400000060208201526040519182918261034a565b60405162461bcd60e51b815260206004820152601d60248201527f4552433230566f7465733a2062726f6b656e20636c6f636b206d6f64650000006044820152606490fd5b346102fd5760403660031901126102fd576020600435610a058161043e565b6001600160a01b031660008181526005835260408120610a27906024356120bf565b929015610a38575050604051908152f35b60409250815280835220546105fb565b346102fd5760203660031901126102fd576020600435610a678161043e565b60018060a01b03809116600052600e825260406000205416604051908152f35b346102fd5760203660031901126102fd5761063c600435610aa78161043e565b336121c8565b346102fd5760803660031901126102fd57600435610aca8161043e565b602435610ad68161043e565b606435906001600160401b03908183116102fd57366023840112156102fd5782600401359182116102fd5736602483850101116102fd576103b6936024610b2294019160443591611e0a565b60405190151581529081906020820190565b346102fd5760203660031901126102fd5760206105fb600435610b568161043e565b611c79565b346102fd5760203660031901126102fd57600435610b788161043e565b60018060a01b0316600052600f6020526020610b986040600020546131b3565b63ffffffff60405191168152f35b346102fd5760003660031901126102fd5760206040516000805160206137278339815191528152f35b346102fd5760203660031901126102fd57600435610bec8161043e565b60018060a01b031660005260006020526020604060002054604051908152f35b346102fd5760203660031901126102fd57600435610c298161043e565b60018060a01b0316600052600c6020526020604060002054604051908152f35b346102fd5760008060031936011261043b57610cf390610c887f0000000000000000000000000000000000000000000000000000000000000000612daa565b610cb17f0000000000000000000000000000000000000000000000000000000000000000612ea2565b9160405191610cbf83611791565b818352604051948594600f60f81b8652610ce560209360e08589015260e0880190610325565b908682036040880152610325565b904660608601523060808601528260a086015284820360c08601528080855193848152019401925b828110610d2a57505050500390f35b835185528695509381019392810192600101610d1b565b346102fd5760203660031901126102fd57600435610d7065ffffffffffff610d684361314c565b168210612138565b6010549060008260058111610e0f575b50905b828210610dbe578280610d9d575060405160008152602090f35b60106000526020906107999060008051602061370783398151915201610792565b9091610dca8184612f7c565b6010600052908263ffffffff610def6000805160206137a783398151915285016107c6565b161115610dff5750915b90610d83565b9250610e0a906118ac565b610df9565b80610803610e1f92959395612f91565b6010600052908263ffffffff610e446000805160206137a783398151915285016107c6565b161115610e545750915b38610d80565b9250610e5f906118ac565b610e4e565b346102fd5760403660031901126102fd57602060ff610e9c602435610e888161043e565b60043560005260098452604060002061160f565b54166040519015158152f35b346102fd5760003660031901126102fd576020610ec44361314c565b65ffffffffffff60405191168152f35b346102fd5760008060031936011261043b5760405181600454610ef68161185c565b808452906001908181169081156104135750600114610f1f576103b6846103aa818803826117c7565b60048352602094507f8a35acfbc15ff81a39ae7d344fd709f28e8600b4aa8c65c6b64bfe7fe36bd19b5b828410610f6557505050816103b6936103aa928201019361039a565b8054858501870152928501928101610f49565b346102fd5760008060031936011261043b576000805160206137278339815191528152600960205260ff610faf336040842061160f565b541615610fed577f8030e83b04d87bef53480e26263266d6ca66863aa8506aca6f2559d18aa1cb67602060016008540180600855604051908152a180f35b61108c6048611074610ffe33612912565b6110666110096129a2565b60405194859376020b1b1b2b9b9a1b7b73a3937b61d1030b1b1b7bab73a1604d1b6020860152611043815180926020603789019101610302565b84017001034b99036b4b9b9b4b733903937b6329607d1b60378201520190611744565b03601f1981018352826117c7565b60405162461bcd60e51b81529182916004830161034a565b0390fd5b346102fd5760203660031901126102fd576110ac60043561201b565b90156110bd57602090604051908152f35b5060206002546105fb565b346102fd5760203660031901126102fd576004356110e58161043e565b6001600160a01b03166000908152600f6020526040902080548061111157505060405160008152602090f35b602091611122916000190190612003565b5054811c610765565b346102fd5760003660031901126102fd57602060405160008152f35b346102fd5760403660031901126102fd576004356111648161043e565b6024359033600052600160205261117f81604060002061160f565b54918083106111a05761119492039033611aae565b60405160018152602090f35b60405162461bcd60e51b815260206004820152602560248201527f45524332303a2064656372656173656420616c6c6f77616e63652062656c6f77604482015264207a65726f60d81b6064820152608490fd5b346102fd5760403660031901126102fd576104796004356112138161043e565b6024359033611a2c565b6064359060ff821682036102fd57565b6084359060ff821682036102fd57565b346102fd5760c03660031901126102fd5760043561125a8161043e565b6044359060243561126961121d565b9280421161130e576112f96113099161063c95604051906112e1826112d36020820195898b8860609194939260808201957fe48329057bfd03d55e49b547132e39cffd9c1820ad7b9d4c5307691425d15adf835260018060a01b0316602083015260408201520152565b03601f1981018452836117c7565b6112f460a4359360843593519020612d84565b612aa0565b9161130383611f7e565b14612180565b6121c8565b60405162461bcd60e51b815260206004820152601d60248201527f4552433230566f7465733a207369676e617475726520657870697265640000006044820152606490fd5b346102fd5760e03660031901126102fd576004356113708161043e565b60243561137c8161043e565b604435906064359261138c61122d565b938042116114405761142861143b916112d361063c976114156113ae87611f7e565b604080517f6e71edae12b1b97f4d1f60370fef10105fa2faae0126114a169c64845d6126c9602082019081526001600160a01b03808c1693830193909352918b166060820152608081018c905260a081019290925260c082019590955292839060e0820190565b6112f460c4359360a43593519020612d84565b6001600160a01b03838116911614611f32565b611aae565b60405162461bcd60e51b815260206004820152601d60248201527f45524332305065726d69743a206578706972656420646561646c696e650000006044820152606490fd5b346102fd5760003660031901126102fd5760206040516000805160206137478339815191528152f35b346102fd5760403660031901126102fd5761063c6024356004356114d18261043e565b8060005260096020526114eb60016040600020015461168e565b6117e8565b346102fd5760403660031901126102fd5760206105fb6004356115128161043e565b611c93565b346102fd5760403660031901126102fd5760206115616004356115398161043e565b602435906115468261043e565b6001600160a01b03166000908152600184526040902061160f565b54604051908152f35b346102fd5760403660031901126102fd576004356115878161043e565b63ffffffff60243581811681036102fd576115d16115d7916040946000602087516115b181611771565b82815201526001600160a01b03166000908152600f602052859020612003565b50612116565b8251815190921682526020908101516001600160e01b031690820152f35b6001600160a01b0316600090815260208190526040902090565b9060018060a01b0316600052602052604060002090565b600080516020613747833981519152600052600960205260ff611669337fd5d09b8f3165a736d25b1a14611612ac91830c1b82012b1c33b2dac7c90a064961160f565b54161561167257565b61108c604861107461168333612912565b611066611009612a21565b80600052600960205260ff6116a733604060002061160f565b5416156116b15750565b6116ba33612912565b6116c2612861565b9160306116ce8461288c565b5360786116da84612899565b5360415b600181116116fd5761108c6048611074856110668861100988156128c7565b90600f811690601082101561173f5761173a916f181899199a1a9b1b9c1cb0b131b232b360811b901a61173084876128a9565b5360041c916128ba565b6116de565b611fed565b9061175760209282815194859201610302565b0190565b634e487b7160e01b600052604160045260246000fd5b604081019081106001600160401b0382111761178c57604052565b61175b565b602081019081106001600160401b0382111761178c57604052565b60c081019081106001600160401b0382111761178c57604052565b90601f801991011681019081106001600160401b0382111761178c57604052565b600090808252600960205260ff611802846040852061160f565b541661180d57505050565b8082526009602052611822836040842061160f565b805460ff1916905533926001600160a01b0316917ff6391f5c32d9c69d2a47ea670b442974b53935d1edc7fd64eb21e047a839171b9080a4565b90600182811c9216801561188c575b602083101461187657565b634e487b7160e01b600052602260045260246000fd5b91607f169161186b565b634e487b7160e01b600052601160045260246000fd5b90600182018092116106e657565b919082018092116106e657565b156118ce57565b60405162461bcd60e51b815260206004820152602360248201527f45524332303a207472616e7366657220746f20746865207a65726f206164647260448201526265737360e81b6064820152608490fd5b1561192657565b60405162461bcd60e51b815260206004820152602660248201527f45524332303a207472616e7366657220616d6f756e7420657863656564732062604482015265616c616e636560d01b6064820152608490fd5b6001600160a01b0316156119d95760405162461bcd60e51b815260206004820152602360248201527f45524332303a207472616e7366657220746f20746865207a65726f206164647260448201526265737360e81b6064820152608490fd5b60405162461bcd60e51b815260206004820152602560248201527f45524332303a207472616e736665722066726f6d20746865207a65726f206164604482015264647265737360d81b6064820152608490fd5b6001600160a01b0392919083811680156119d957611aac94831690611a528215156118c7565b611a5c84846132c1565b84611a66846115f5565b54611a738282101561191f565b03611a7d846115f5565b55611a87846115f5565b80548601905560405185815260008051602061376783398151915290602090a3613506565b565b6001600160a01b038082169291908315611b7b578216938415611b2b5780611b157f8c5be1e5ebec7d5bd14f71427d1e84f3dd0314c0f7b2291e5b200ac8c7c3b92594611b10611b269560018060a01b03166000526001602052604060002090565b61160f565b556040519081529081906020820190565b0390a3565b60405162461bcd60e51b815260206004820152602260248201527f45524332303a20617070726f766520746f20746865207a65726f206164647265604482015261737360f01b6064820152608490fd5b60405162461bcd60e51b8152602060048201526024808201527f45524332303a20617070726f76652066726f6d20746865207a65726f206164646044820152637265737360e01b6064820152608490fd5b9060018060a01b0382166000526001602052611bec81604060002061160f565b549260018401611bfd575b50505050565b808410611c1857611c0f930391611aae565b38808080611bf7565b60405162461bcd60e51b815260206004820152601d60248201527f45524332303a20696e73756666696369656e7420616c6c6f77616e63650000006044820152606490fd5b6000198101919082116106e657565b919082039182116106e657565b6000906001600160a01b0316300361035b57506002541990565b306001600160a01b0390911603611ca957600090565b60405162461bcd60e51b815260206004820152601b60248201527a22a9219918233630b9b426b4b73a1d103bb937b733903a37b5b2b760291b6044820152606490fd5b15611cf357565b60405162461bcd60e51b815260206004820152602b60248201527f4552433230466c6173684d696e743a20616d6f756e742065786365656473206d60448201526a30bc233630b9b42637b0b760a91b6064820152608490fd5b908160209103126102fd575190565b94919286949160c0979460018060a01b0380921688521660208701526040860152606085015260a060808501528160a0850152848401376000828201840152601f01601f1916010190565b6040513d6000823e3d90fd5b15611db957565b60405162461bcd60e51b8152602060048201526024808201527f4552433230466c6173684d696e743a20696e76616c69642072657475726e2076604482015263616c756560e01b6064820152608490fd5b908260209196959396611e27611e1f82611c79565b831115611cec565b611e69611e3382611c93565b6001600160a01b039095169694958695611e4d858a61359d565b6040516323e30c8b60e01b815296879586953360048801611d5b565b03816000875af1908115611f2d57611eac917f439148f0bbc682ca079e46d6e2c2f0c1e3b820f1a291b069d8882abf8cf18dd991600091611eff575b5014611db2565b611ec0611eb982866118ba565b3084611bcc565b80158015611ef7575b15611ee757611edc90611ee293946118ba565b906135cd565b600190565b50611ef283826135cd565b61197a565b506001611ec9565b611f20915060203d8111611f26575b611f1881836117c7565b810190611d4c565b38611ea5565b503d611f0e565b611da6565b15611f3957565b60405162461bcd60e51b815260206004820152601e60248201527f45524332305065726d69743a20696e76616c6964207369676e617475726500006044820152606490fd5b6001600160a01b03166000908152600c6020526040902080546001810190915590565b15611fa857565b60405162461bcd60e51b815260206004820152601d60248201527f4552433230536e617073686f743a206e6f6e6578697374656e742069640000006044820152606490fd5b634e487b7160e01b600052603260045260246000fd5b805482101561173f5760005260206000200190600090565b80156120815761203890612033600854821115611fa1565b61272f565b600654810361204a5750600090600090565b60075481101561173f5760076000527fa66cc928b5edb82af9bd49922954155ab7b0942694bea4ce44661d9a8736c6880154600191565b60405162461bcd60e51b815260206004820152601660248201527504552433230536e617073686f743a20696420697320360541b6044820152606490fd5b8015612081576120dd906120d7600854821115611fa1565b826127d2565b815481036120ef575050600090600090565b60016120fb9201612003565b90549060031b1c9060019190565b60405190611aac82611771565b9060405161212381611771565b602081935463ffffffff81168352811c910152565b1561213f57565b60405162461bcd60e51b815260206004820152601960248201527804552433230566f7465733a20667574757265206c6f6f6b757603c1b6044820152606490fd5b1561218757565b60405162461bcd60e51b81526020600482015260196024820152784552433230566f7465733a20696e76616c6964206e6f6e636560381b6044820152606490fd5b6001600160a01b039081166000818152600e60208181526040808420805485845291852054939092528686166001600160a01b031982168117909255611aac9692959294921692909183917f3134e8a2e6d97e929a7e54011ea5485d7d196dd5f0ba4d4ef95803e8e3fc257f9080a45b6001600160a01b0380831693929116808414158061244a575b61225b5750505050565b806122c9575b508261226e575b80611bf7565b6001600160a01b03166000908152600f602052604090207fdec2bacdd2f05b59de34da9b523dff8be42e5e38e818c82fdb0bae774387a724916122b09161260f565b60408051928352602083019190915290a2388080612268565b80600052600f6020527fdec2bacdd2f05b59de34da9b523dff8be42e5e38e818c82fdb0bae774387a72460406000208054801591826000146124275761230d612109565b6000815260006020820152915b6020830151612339906001600160e01b03165b6001600160e01b031690565b9261234489856136ec565b94159081612404575b50156123a25761237561238c92612363866130e3565b92600019019060005260206000200190565b9063ffffffff82549181199060201b169116179055565b604080519182526020820192909252a238612261565b506123ff906123c66123c16123b64361314c565b65ffffffffffff1690565b6131b3565b906123fa6123d3866130e3565b6123ea6123de612109565b63ffffffff9095168552565b6001600160e01b03166020840152565b6124a8565b61238c565b5163ffffffff16905063ffffffff61241e6123b64361314c565b9116143861234d565b61244461243f60001984018360005260206000200190565b612116565b9161231a565b50821515612251565b60105490600160401b82101561178c57600182018060105582101561173f576010600052805160209182015190911b63ffffffff191663ffffffff91909116176000805160206137a783398151915290910155565b8054600160401b81101561178c576124c591600182018155612003565b6124ec57815160209283015190921b63ffffffff191663ffffffff92909216919091179055565b634e487b7160e01b600052600060045260246000fd5b601054909181159182156125ec57612518612109565b60008152600060208201525b60208101516125469061253f906001600160e01b031661232d565b95866136f9565b931590816125c9575b501561257e57611aac90612375612565856130e3565b6010600052916000805160206137078339815191520190565b50611aac6125916123c16123b64361314c565b6125c461259d856130e3565b6125b46125a8612109565b63ffffffff9094168452565b6001600160e01b03166020830152565b612453565b5163ffffffff16905063ffffffff6125e36123b64361314c565b9116143861254f565b601060005261260a6000805160206137078339815191528201612116565b612524565b9091815491821592836000146126ab57612627612109565b60008152600060208201525b60208101516126559061264e906001600160e01b031661232d565b96876136f9565b94159081612688575b501561267457612375611aac92612363866130e3565b50611aac906123c66123c16123b64361314c565b5163ffffffff16905063ffffffff6126a26123b64361314c565b9116143861265e565b6126c361243f60001983018460005260206000200190565b612633565b6010549091811591821561270c576126de612109565b60008152600060208201525b602081015161254690612705906001600160e01b031661232d565b95866136ec565b601060005261272a6000805160206137078339815191528201612116565b6126ea565b60069081549182156127ca57600080935b808510612791575050508115159081612763575b501561035b5761035b90611c5d565b905061278961277183611c5d565b60066000526000805160206137878339815191520190565b541438612754565b61279b8186612f7c565b90818484528581602086200154116000146127b7575050612740565b9095506127c491506118ac565b93612740565b505050600090565b80549182156127ca57600080935b8085106128285750508215159182612803575b50501561035b5761035b90611c5d565b61281f91925061281284611c5d565b9060005260206000200190565b541438806127f3565b6128328186612f7c565b908185845284816020862001541160001461284e5750506127e0565b90955061285b91506118ac565b936127e0565b60405190608082018281106001600160401b0382111761178c57604052604282526060366020840137565b80511561173f5760200190565b80516001101561173f5760210190565b90815181101561173f570160200190565b80156106e6576000190190565b156128ce57565b606460405162461bcd60e51b815260206004820152602060248201527f537472696e67733a20686578206c656e67746820696e73756666696369656e746044820152fd5b60405190606082018281106001600160401b0382111761178c57604052602a8252604036602084013760306129468361288c565b53607861295283612899565b536029905b6001821161296a5761035b9150156128c7565b600f811690601082101561173f5761299c916f181899199a1a9b1b9c1cb0b131b232b360811b901a61173084866128a9565b90612957565b6000805160206137278339815191526129b9612861565b9060306129c58361288c565b5360786129d183612899565b536041905b600182116129e95761035b9150156128c7565b600f811690601082101561173f57612a1b916f181899199a1a9b1b9c1cb0b131b232b360811b901a61173084866128a9565b906129d6565b600080516020613747833981519152612a38612861565b906030612a448361288c565b536078612a5083612899565b536041905b60018211612a685761035b9150156128c7565b600f811690601082101561173f57612a9a916f181899199a1a9b1b9c1cb0b131b232b360811b901a61173084866128a9565b90612a55565b9161035b9391612aaf93612bf2565b919091612ad7565b60051115612ac157565b634e487b7160e01b600052602160045260246000fd5b612ae081612ab7565b80612ae85750565b612af181612ab7565b60018103612b395760405162461bcd60e51b815260206004820152601860248201527745434453413a20696e76616c6964207369676e617475726560401b6044820152606490fd5b612b4281612ab7565b60028103612b8f5760405162461bcd60e51b815260206004820152601f60248201527f45434453413a20696e76616c6964207369676e6174757265206c656e677468006044820152606490fd5b80612b9b600392612ab7565b14612ba257565b60405162461bcd60e51b815260206004820152602260248201527f45434453413a20696e76616c6964207369676e6174757265202773272076616c604482015261756560f01b6064820152608490fd5b9291906fa2a8918ca85bafe22016d0b997e4df60600160ff1b038311612c5e5791608094939160ff602094604051948552168484015260408301526060820152600093849182805260015afa15611f2d5781516001600160a01b03811615612c58579190565b50600190565b50505050600090600390565b307f00000000000000000000000000000000000000000000000000000000000000006001600160a01b03161480612d5b575b15612cc5577f000000000000000000000000000000000000000000000000000000000000000090565b60405160208101907f8b73c3c69bb8fe3d512ecc4cf759cc79239f7b179b0ffacaa9a75d522b39400f82527f000000000000000000000000000000000000000000000000000000000000000060408201527f000000000000000000000000000000000000000000000000000000000000000060608201524660808201523060a082015260a08152612d55816117ac565b51902090565b507f00000000000000000000000000000000000000000000000000000000000000004614612c9c565b604290612d8f612c6a565b906040519161190160f01b8352600283015260228201522090565b60ff8114612de85760ff811690601f8211612dd65760405191612dcc83611771565b8252602082015290565b604051632cd44ac360e21b8152600490fd5b50604051600a54816000612dfb8361185c565b808352600193808516908115612e815750600114612e21575b5061035b925003826117c7565b600a60009081527fc65a7bb8d6351c1cf70c95a316cc6a92839c986682d98bc35f958f4883f9d2a894602093509091905b818310612e6957505061035b935082010138612e14565b85548784018501529485019486945091830191612e52565b905061035b94506020925060ff191682840152151560051b82010138612e14565b60ff8114612ec45760ff811690601f8211612dd65760405191612dcc83611771565b50604051600b54816000612ed78361185c565b808352600193808516908115612e815750600114612efc575061035b925003826117c7565b600b60009081527f0175b7a638427703f0dbe7bb9bbf987a2551717b34e79f33b5b1008d1fa01db994602093509091905b818310612f4457505061035b935082010138612e14565b85548784018501529485019486945091830191612f2d565b8115612f66570490565b634e487b7160e01b600052601260045260246000fd5b90808216911860011c81018091116106e65790565b80156130cb578061306461305d61305361304961303f61303561302b613021600161035b9a6000908b60801c806130bf575b508060401c806130b2575b508060201c806130a5575b508060101c80613098575b508060081c8061308b575b508060041c8061307e575b508060021c80613071575b50821c61306a575b811c1b61301a818b612f5c565b0160011c90565b61301a818a612f5c565b61301a8189612f5c565b61301a8188612f5c565b61301a8187612f5c565b61301a8186612f5c565b61301a8185612f5c565b8092612f5c565b906130d1565b810161300d565b6002915091019038613005565b6004915091019038612ffa565b6008915091019038612fef565b6010915091019038612fe4565b6020915091019038612fd9565b6040915091019038612fce565b91505060809038612fc3565b50600090565b90808210156130de575090565b905090565b6001600160e01b03908181116130f7571690565b60405162461bcd60e51b815260206004820152602760248201527f53616665436173743a2076616c756520646f65736e27742066697420696e20326044820152663234206269747360c81b6064820152608490fd5b65ffffffffffff9081811161315f571690565b60405162461bcd60e51b815260206004820152602660248201527f53616665436173743a2076616c756520646f65736e27742066697420696e203460448201526538206269747360d01b6064820152608490fd5b63ffffffff908181116131c4571690565b60405162461bcd60e51b815260206004820152602660248201527f53616665436173743a2076616c756520646f65736e27742066697420696e203360448201526532206269747360d01b6064820152608490fd5b613221906132f4565b611aac61333b565b6001600160a01b038116613218575060008080526020527fad3228b676f7d3cd4284a5443f17f1962b36e491b30a40b2405849e597ba5fb5546008547f05b8ccbb9d4d8fb16ea74ce3c29a41f1b461fbdaff4714a0d9a8eb05499746bc91908061329284613440565b106132a3575b505050611aac61333b565b826132b36001926132b9956133ce565b016133ce565b388080613298565b906001600160a01b038083166132dc575061322191506132f4565b81166132ec5750613221906132f4565b6132f4611aac925b60018060a01b03166000526005602052604060002060006020526040600020546008548061332184613440565b1061332b57505050565b826132b3600192611aac956133ce565b6002546008548061334a613403565b10613353575050565b600654600160401b91908281101561178c57600181018060065581101561173f57600660005260008051602061378783398151915201556007549081101561178c57600181018060075581101561173f5760076000527fa66cc928b5edb82af9bd49922954155ab7b0942694bea4ce44661d9a8736c6880155565b8054600160401b81101561178c576133eb91600182018155612003565b819291549060031b91821b91600019901b1916179055565b600654806134115750600090565b600019908082018181116106e65781111561173f57600660005201600080516020613787833981519152015490565b80548061344e575050600090565b60001981019081116106e65761346391612003565b90549060031b1c90565b600e6020527fe710864318d4a32f37d6ce54cb3fadbef648dd12d8dbdf53973564d56b7f881c546001600160a01b0391821660009081526040902054611aac93929081169116612238565b6001600160a01b039081166000908152600e60205260408120549080527fe710864318d4a32f37d6ce54cb3fadbef648dd12d8dbdf53973564d56b7f881c54611aac93929081169116612238565b6001600160a01b039081166000908152600e6020526040808220549383168252902054611aac93929082169116612238565b1561353f57565b60405162461bcd60e51b815260206004820152603060248201527f4552433230566f7465733a20746f74616c20737570706c79207269736b73206f60448201526f766572666c6f77696e6720766f74657360801b6064820152608490fd5b6001600160a01b038116919082156108ef5781816135c9946135c16108d4946132f4565b61088f61333b565b5050565b6001600160a01b0381169190821561364657818160006135c9956135f361364195613229565b836135fd846115f5565b5461360a82821015613695565b03613614846115f5565b556136228460025403600255565b60405184815260008051602061376783398151915290602090a36134b8565b6126c8565b60405162461bcd60e51b815260206004820152602160248201527f45524332303a206275726e2066726f6d20746865207a65726f206164647265736044820152607360f81b6064820152608490fd5b1561369c57565b60405162461bcd60e51b815260206004820152602260248201527f45524332303a206275726e20616d6f756e7420657863656564732062616c616e604482015261636560f01b6064820152608490fd5b9081039081116106e65790565b9081018091116106e6579056fe1b6847dc741a1b0cd08d278845f9d819d87b734759afb55fe2de5cb82a9ae6715fdbd35e8da83ee755d5e62a539e5ed7f47126abede0b8b10f9ea43dc6eed07f9f2df0fed2c77648de5860a4cc508cd0818c85b8b8a1ab4ceeef8d981c8956a6ddf252ad1be2c89b69c2b068fc378daa952ba7f163c4a11628f55a4df523b3eff652222313e28459528d920b65115c16c04f3efc82aaedc97be59f3f377c0d3f1b6847dc741a1b0cd08d278845f9d819d87b734759afb55fe2de5cb82a9ae672a264697066735822122069e62410dec4803e828b3441373f0a18c518da5c4b902ef82ed1f959b9c6fa6d64736f6c634300081300332f8788117e7eff1d82e926ec794901d17c78024a50270940304540a733656f0d1b6847dc741a1b0cd08d278845f9d819d87b734759afb55fe2de5cb82a9ae671dec2bacdd2f05b59de34da9b523dff8be42e5e38e818c82fdb0bae774387a724",
  "devdoc": {
    "events": {
      "Approval(address,address,uint256)": {
        "details": "Emitted when the allowance of a `spender` for an `owner` is set by a call to {approve}. `value` is the new allowance."
      },
      "DelegateChanged(address,address,address)": {
        "details": "Emitted when an account changes their delegate."
      },
      "DelegateVotesChanged(address,uint256,uint256)": {
        "details": "Emitted when a token transfer or delegate change results in changes to a delegate's number of votes."
      },
      "EIP712DomainChanged()": {
        "details": "MAY be emitted to signal that the domain could have changed."
      },
      "RoleAdminChanged(bytes32,bytes32,bytes32)": {
        "details": "Emitted when `newAdminRole` is set as ``role``'s admin role, replacing `previousAdminRole` `DEFAULT_ADMIN_ROLE` is the starting admin for all roles, despite {RoleAdminChanged} not being emitted signaling this. _Available since v3.1._"
      },
      "RoleGranted(bytes32,address,address)": {
        "details": "Emitted when `account` is granted `role`. `sender` is the account that originated the contract call, an admin role bearer except when using {AccessControl-_setupRole}."
      },
      "RoleRevoked(bytes32,address,address)": {
        "details": "Emitted when `account` is revoked `role`. `sender` is the account that originated the contract call:   - if using `revokeRole`, it is the admin role bearer   - if using `renounceRole`, it is the role bearer (i.e. `account`)"
      },
      "Snapshot(uint256)": {
        "details": "Emitted by {_snapshot} when a snapshot identified by `id` is created."
      },
      "Transfer(address,address,uint256)": {
        "details": "Emitted when `value` tokens are moved from one account (`from`) to another (`to`). Note that `value` may be zero."
      }
    },
    "kind": "dev",
    "methods": {
      "CLOCK_MODE()": {
        "details": "Description of the clock"
      },
      "DOMAIN_SEPARATOR()": {
        "details": "See {IERC20Permit-DOMAIN_SEPARATOR}."
      },
      "allowance(address,address)": {
        "details": "See {IERC20-allowance}."
      },
      "approve(address,uint256)": {
        "details": "See {IERC20-approve}. NOTE: If `amount` is the maximum `uint256`, the allowance is not updated on `transferFrom`. This is semantically equivalent to an infinite approval. Requirements: - `spender` cannot be the zero address."
      },
      "balanceOf(address)": {
        "details": "See {IERC20-balanceOf}."
      },
      "balanceOfAt(address,uint256)": {
        "details": "Retrieves the balance of `account` at the time `snapshotId` was created."
      },
      "checkpoints(address,uint32)": {
        "details": "Get the `pos`-th checkpoint for `account`."
      },
      "clock()": {
        "details": "Clock used for flagging checkpoints. Can be overridden to implement timestamp based checkpoints (and voting)."
      },
      "decimals()": {
        "details": "Returns the number of decimals used to get its user representation. For example, if `decimals` equals `2`, a balance of `505` tokens should be displayed to a user as `5.05` (`505 / 10 ** 2`). Tokens usually opt for a value of 18, imitating the relationship between Ether and Wei. This is the default value returned by this function, unless it's overridden. NOTE: This information is only used for _display_ purposes: it in no way affects any of the arithmetic of the contract, including {IERC20-balanceOf} and {IERC20-transfer}."
      },
      "decreaseAllowance(address,uint256)": {
        "details": "Atomically decreases the allowance granted to `spender` by the caller. This is an alternative to {approve} that can be used as a mitigation for problems described in {IERC20-approve}. Emits an {Approval} event indicating the updated allowance. Requirements: - `spender` cannot be the zero address. - `spender` must have allowance for the caller of at least `subtractedValue`."
      },
      "delegate(address)": {
        "details": "Delegate votes from the sender to `delegatee`."
      },
      "delegateBySig(address,uint256,uint256,uint8,bytes32,bytes32)": {
        "details": "Delegates votes from signer to `delegatee`"
      },
      "delegates(address)": {
        "details": "Get the address `account` is currently delegating to."
      },
      "eip712Domain()": {
        "details": "See {EIP-5267}. _Available since v4.9._"
      },
      "flashFee(address,uint256)": {
        "details": "Returns the fee applied when doing flash loans. This function calls the {_flashFee} function which returns the fee applied when doing flash loans.",
        "params": {
          "amount": "The amount of tokens to be loaned.",
          "token": "The token to be flash loaned."
        },
        "returns": {
          "_0": "The fees applied to the corresponding flash loan."
        }
      },
      "flashLoan(address,address,uint256,bytes)": {
        "details": "Performs a flash loan. New tokens are minted and sent to the `receiver`, who is required to implement the {IERC3156FlashBorrower} interface. By the end of the flash loan, the receiver is expected to own amount + fee tokens and have them approved back to the token contract itself so they can be burned.",
        "params": {
          "amount": "The amount of tokens to be loaned.",
          "data": "An arbitrary datafield that is passed to the receiver.",
          "receiver": "The receiver of the flash loan. Should implement the {IERC3156FlashBorrower-onFlashLoan} interface.",
          "token": "The token to be flash loaned. Only `address(this)` is supported."
        },
        "returns": {
          "_0": "`true` if the flash loan was successful."
        }
      },
      "getPastTotalSupply(uint256)": {
        "details": "Retrieve the `totalSupply` at the end of `timepoint`. Note, this value is the sum of all balances. It is NOT the sum of all the delegated votes! Requirements: - `timepoint` must be in the past"
      },
      "getPastVotes(address,uint256)": {
        "details": "Retrieve the number of votes for `account` at the end of `timepoint`. Requirements: - `timepoint` must be in the past"
      },
      "getRoleAdmin(bytes32)": {
        "details": "Returns the admin role that controls `role`. See {grantRole} and {revokeRole}. To change a role's admin, use {_setRoleAdmin}."
      },
      "getVotes(address)": {
        "details": "Gets the current votes balance for `account`"
      },
      "grantRole(bytes32,address)": {
        "details": "Grants `role` to `account`. If `account` had not been already granted `role`, emits a {RoleGranted} event. Requirements: - the caller must have ``role``'s admin role. May emit a {RoleGranted} event."
      },
      "hasRole(bytes32,address)": {
        "details": "Returns `true` if `account` has been granted `role`."
      },
      "increaseAllowance(address,uint256)": {
        "details": "Atomically increases the allowance granted to `spender` by the caller. This is an alternative to {approve} that can be used as a mitigation for problems described in {IERC20-approve}. Emits an {Approval} event indicating the updated allowance. Requirements: - `spender` cannot be the zero address."
      },
      "maxFlashLoan(address)": {
        "details": "Returns the maximum amount of tokens available for loan.",
        "params": {
          "token": "The address of the token that is requested."
        },
        "returns": {
          "_0": "The amount of token that can be loaned."
        }
      },
      "name()": {
        "details": "Returns the name of the token."
      },
      "nonces(address)": {
        "details": "See {IERC20Permit-nonces}."
      },
      "numCheckpoints(address)": {
        "details": "Get number of checkpoints for `account`."
      },
      "permit(address,address,uint256,uint256,uint8,bytes32,bytes32)": {
        "details": "See {IERC20Permit-permit}."
      },
      "renounceRole(bytes32,address)": {
        "details": "Revokes `role` from the calling account. Roles are often managed via {grantRole} and {revokeRole}: this function's purpose is to provide a mechanism for accounts to lose their privileges if they are compromised (such as when a trusted device is misplaced). If the calling account had been revoked `role`, emits a {RoleRevoked} event. Requirements: - the caller must be `account`. May emit a {RoleRevoked} event."
      },
      "revokeRole(bytes32,address)": {
        "details": "Revokes `role` from `account`. If `account` had been granted `role`, emits a {RoleRevoked} event. Requirements: - the caller must have ``role``'s admin role. May emit a {RoleRevoked} event."
      },
      "supportsInterface(bytes4)": {
        "details": "See {IERC165-supportsInterface}."
      },
      "symbol()": {
        "details": "Returns the symbol of the token, usually a shorter version of the name."
      },
      "totalSupply()": {
        "details": "See {IERC20-totalSupply}."
      },
      "totalSupplyAt(uint256)": {
        "details": "Retrieves the total supply at the time `snapshotId` was created."
      },
      "transfer(address,uint256)": {
        "details": "See {IERC20-transfer}. Requirements: - `to` cannot be the zero address. - the caller must have a balance of at least `amount`."
      },
      "transferFrom(address,address,uint256)": {
        "details": "See {IERC20-transferFrom}. Emits an {Approval} event indicating the updated allowance. This is not required by the EIP. See the note at the beginning of {ERC20}. NOTE: Does not update the allowance if the current allowance is the maximum `uint256`. Requirements: - `from` and `to` cannot be the zero address. - `from` must have a balance of at least `amount`. - the caller must have allowance for ``from``'s tokens of at least `amount`."
      }
    },
    "version": 1
  },
  "userdoc": {
    "kind": "user",
    "methods": {},
    "version": 1
  },
  "storageLayout": {
    "storage": [
      {
        "astId": 3125,
        "contract": "contracts/Fueli.sol:Fueli",
        "label": "_balances",
        "offset": 0,
        "slot": "0",
        "type": "t_mapping(t_address,t_uint256)"
      },
      {
        "astId": 3131,
        "contract": "contracts/Fueli.sol:Fueli",
        "label": "_allowances",
        "offset": 0,
        "slot": "1",
        "type": "t_mapping(t_address,t_mapping(t_address,t_uint256))"
      },
      {
        "astId": 3133,
        "contract": "contracts/Fueli.sol:Fueli",
        "label": "_totalSupply",
        "offset": 0,
        "slot": "2",
        "type": "t_uint256"
      },
      {
        "astId": 3135,
        "contract": "contracts/Fueli.sol:Fueli",
        "label": "_name",
        "offset": 0,
        "slot": "3",
        "type": "t_string_storage"
      },
      {
        "astId": 3137,
        "contract": "contracts/Fueli.sol:Fueli",
        "label": "_symbol",
        "offset": 0,
        "slot": "4",
        "type": "t_string_storage"
      },
      {
        "astId": 4191,
        "contract": "contracts/Fueli.sol:Fueli",
        "label": "_accountBalanceSnapshots",
        "offset": 0,
        "slot": "5",
        "type": "t_mapping(t_address,t_struct(Snapshots)4186_storage)"
      },
      {
        "astId": 4194,
        "contract": "contracts/Fueli.sol:Fueli",
        "label": "_totalSupplySnapshots",
        "offset": 0,
        "slot": "6",
        "type": "t_struct(Snapshots)4186_storage"
      },
      {
        "astId": 4197,
        "contract": "contracts/Fueli.sol:Fueli",
        "label": "_currentSnapshotId",
        "offset": 0,
        "slot": "8",
        "type": "t_struct(Counter)8973_storage"
      },
      {
        "astId": 24,
        "contract": "contracts/Fueli.sol:Fueli",
        "label": "_roles",
        "offset": 0,
        "slot": "9",
        "type": "t_mapping(t_bytes32,t_struct(RoleData)19_storage)"
      },
      {
        "astId": 9995,
        "contract": "contracts/Fueli.sol:Fueli",
        "label": "_nameFallback",
        "offset": 0,
        "slot": "10",
        "type": "t_string_storage"
      },
      {
        "astId": 9997,
        "contract": "contracts/Fueli.sol:Fueli",
        "label": "_versionFallback",
        "offset": 0,
        "slot": "11",
        "type": "t_string_storage"
      },
      {
        "astId": 4014,
        "contract": "contracts/Fueli.sol:Fueli",
        "label": "_nonces",
        "offset": 0,
        "slot": "12",
        "type": "t_mapping(t_address,t_struct(Counter)8973_storage)"
      },
      {
        "astId": 4022,
        "contract": "contracts/Fueli.sol:Fueli",
        "label": "_PERMIT_TYPEHASH_DEPRECATED_SLOT",
        "offset": 0,
        "slot": "13",
        "type": "t_bytes32"
      },
      {
        "astId": 4517,
        "contract": "contracts/Fueli.sol:Fueli",
        "label": "_delegates",
        "offset": 0,
        "slot": "14",
        "type": "t_mapping(t_address,t_address)"
      },
      {
        "astId": 4523,
        "contract": "contracts/Fueli.sol:Fueli",
        "label": "_checkpoints",
        "offset": 0,
        "slot": "15",
        "type": "t_mapping(t_address,t_array(t_struct(Checkpoint)4508_storage)dyn_storage)"
      },
      {
        "astId": 4527,
        "contract": "contracts/Fueli.sol:Fueli",
        "label": "_totalSupplyCheckpoints",
        "offset": 0,
        "slot": "16",
        "type": "t_array(t_struct(Checkpoint)4508_storage)dyn_storage"
      }
    ],
    "types": {
      "t_address": {
        "encoding": "inplace",
        "label": "address",
        "numberOfBytes": "20"
      },
      "t_array(t_struct(Checkpoint)4508_storage)dyn_storage": {
        "base": "t_struct(Checkpoint)4508_storage",
        "encoding": "dynamic_array",
        "label": "struct ERC20Votes.Checkpoint[]",
        "numberOfBytes": "32"
      },
      "t_array(t_uint256)dyn_storage": {
        "base": "t_uint256",
        "encoding": "dynamic_array",
        "label": "uint256[]",
        "numberOfBytes": "32"
      },
      "t_bool": {
        "encoding": "inplace",
        "label": "bool",
        "numberOfBytes": "1"
      },
      "t_bytes32": {
        "encoding": "inplace",
        "label": "bytes32",
        "numberOfBytes": "32"
      },
      "t_mapping(t_address,t_address)": {
        "encoding": "mapping",
        "key": "t_address",
        "label": "mapping(address => address)",
        "numberOfBytes": "32",
        "value": "t_address"
      },
      "t_mapping(t_address,t_array(t_struct(Checkpoint)4508_storage)dyn_storage)": {
        "encoding": "mapping",
        "key": "t_address",
        "label": "mapping(address => struct ERC20Votes.Checkpoint[])",
        "numberOfBytes": "32",
        "value": "t_array(t_struct(Checkpoint)4508_storage)dyn_storage"
      },
      "t_mapping(t_address,t_bool)": {
        "encoding": "mapping",
        "key": "t_address",
        "label": "mapping(address => bool)",
        "numberOfBytes": "32",
        "value": "t_bool"
      },
      "t_mapping(t_address,t_mapping(t_address,t_uint256))": {
        "encoding": "mapping",
        "key": "t_address",
        "label": "mapping(address => mapping(address => uint256))",
        "numberOfBytes": "32",
        "value": "t_mapping(t_address,t_uint256)"
      },
      "t_mapping(t_address,t_struct(Counter)8973_storage)": {
        "encoding": "mapping",
        "key": "t_address",
        "label": "mapping(address => struct Counters.Counter)",
        "numberOfBytes": "32",
        "value": "t_struct(Counter)8973_storage"
      },
      "t_mapping(t_address,t_struct(Snapshots)4186_storage)": {
        "encoding": "mapping",
        "key": "t_address",
        "label": "mapping(address => struct ERC20Snapshot.Snapshots)",
        "numberOfBytes": "32",
        "value": "t_struct(Snapshots)4186_storage"
      },
      "t_mapping(t_address,t_uint256)": {
        "encoding": "mapping",
        "key": "t_address",
        "label": "mapping(address => uint256)",
        "numberOfBytes": "32",
        "value": "t_uint256"
      },
      "t_mapping(t_bytes32,t_struct(RoleData)19_storage)": {
        "encoding": "mapping",
        "key": "t_bytes32",
        "label": "mapping(bytes32 => struct AccessControl.RoleData)",
        "numberOfBytes": "32",
        "value": "t_struct(RoleData)19_storage"
      },
      "t_string_storage": {
        "encoding": "bytes",
        "label": "string",
        "numberOfBytes": "32"
      },
      "t_struct(Checkpoint)4508_storage": {
        "encoding": "inplace",
        "label": "struct ERC20Votes.Checkpoint",
        "members": [
          {
            "astId": 4505,
            "contract": "contracts/Fueli.sol:Fueli",
            "label": "fromBlock",
            "offset": 0,
            "slot": "0",
            "type": "t_uint32"
          },
          {
            "astId": 4507,
            "contract": "contracts/Fueli.sol:Fueli",
            "label": "votes",
            "offset": 4,
            "slot": "0",
            "type": "t_uint224"
          }
        ],
        "numberOfBytes": "32"
      },
      "t_struct(Counter)8973_storage": {
        "encoding": "inplace",
        "label": "struct Counters.Counter",
        "members": [
          {
            "astId": 8972,
            "contract": "contracts/Fueli.sol:Fueli",
            "label": "_value",
            "offset": 0,
            "slot": "0",
            "type": "t_uint256"
          }
        ],
        "numberOfBytes": "32"
      },
      "t_struct(RoleData)19_storage": {
        "encoding": "inplace",
        "label": "struct AccessControl.RoleData",
        "members": [
          {
            "astId": 16,
            "contract": "contracts/Fueli.sol:Fueli",
            "label": "members",
            "offset": 0,
            "slot": "0",
            "type": "t_mapping(t_address,t_bool)"
          },
          {
            "astId": 18,
            "contract": "contracts/Fueli.sol:Fueli",
            "label": "adminRole",
            "offset": 0,
            "slot": "1",
            "type": "t_bytes32"
          }
        ],
        "numberOfBytes": "64"
      },
      "t_struct(Snapshots)4186_storage": {
        "encoding": "inplace",
        "label": "struct ERC20Snapshot.Snapshots",
        "members": [
          {
            "astId": 4182,
            "contract": "contracts/Fueli.sol:Fueli",
            "label": "ids",
            "offset": 0,
            "slot": "0",
            "type": "t_array(t_uint256)dyn_storage"
          },
          {
            "astId": 4185,
            "contract": "contracts/Fueli.sol:Fueli",
            "label": "values",
            "offset": 0,
            "slot": "1",
            "type": "t_array(t_uint256)dyn_storage"
          }
        ],
        "numberOfBytes": "64"
      },
      "t_uint224": {
        "encoding": "inplace",
        "label": "uint224",
        "numberOfBytes": "28"
      },
      "t_uint256": {
        "encoding": "inplace",
        "label": "uint256",
        "numberOfBytes": "32"
      },
      "t_uint32": {
        "encoding": "inplace",
        "label": "uint32",
        "numberOfBytes": "4"
      }
    }
  }
}