{
  "address": "0xE3D0BD2806ea19b3776398f21cb5ECe55dE2E90F",
  "abi": [
    {
      "inputs": [
        {
          "internalType": "contract IVotes",
          "name": "_token",
          "type": "address"
        }
      ],
      "stateMutability": "nonpayable",
      "type": "constructor"
    },
    {
      "inputs": [],
      "name": "Empty",
      "type": "error"
    },
    {
      "inputs": [],
      "name": "InvalidShortString",
      "type": "error"
    },
    {
      "inputs": [
        {
          "internalType": "string",
          "name": "str",
          "type": "string"
        }
      ],
      "name": "StringTooLong",
      "type": "error"
    },
    {
      "anonymous": false,
      "inputs": [],
      "name": "EIP712DomainChanged",
      "type": "event"
    },
    {
      "anonymous": false,
      "inputs": [
        {
          "indexed": false,
          "internalType": "uint256",
          "name": "proposalId",
          "type": "uint256"
        }
      ],
      "name": "ProposalCanceled",
      "type": "event"
    },
    {
      "anonymous": false,
      "inputs": [
        {
          "indexed": false,
          "internalType": "uint256",
          "name": "proposalId",
          "type": "uint256"
        },
        {
          "indexed": false,
          "internalType": "address",
          "name": "proposer",
          "type": "address"
        },
        {
          "indexed": false,
          "internalType": "address[]",
          "name": "targets",
          "type": "address[]"
        },
        {
          "indexed": false,
          "internalType": "uint256[]",
          "name": "values",
          "type": "uint256[]"
        },
        {
          "indexed": false,
          "internalType": "string[]",
          "name": "signatures",
          "type": "string[]"
        },
        {
          "indexed": false,
          "internalType": "bytes[]",
          "name": "calldatas",
          "type": "bytes[]"
        },
        {
          "indexed": false,
          "internalType": "uint256",
          "name": "voteStart",
          "type": "uint256"
        },
        {
          "indexed": false,
          "internalType": "uint256",
          "name": "voteEnd",
          "type": "uint256"
        },
        {
          "indexed": false,
          "internalType": "string",
          "name": "description",
          "type": "string"
        }
      ],
      "name": "ProposalCreated",
      "type": "event"
    },
    {
      "anonymous": false,
      "inputs": [
        {
          "indexed": false,
          "internalType": "uint256",
          "name": "proposalId",
          "type": "uint256"
        }
      ],
      "name": "ProposalExecuted",
      "type": "event"
    },
    {
      "anonymous": false,
      "inputs": [
        {
          "indexed": false,
          "internalType": "uint256",
          "name": "oldProposalThreshold",
          "type": "uint256"
        },
        {
          "indexed": false,
          "internalType": "uint256",
          "name": "newProposalThreshold",
          "type": "uint256"
        }
      ],
      "name": "ProposalThresholdSet",
      "type": "event"
    },
    {
      "anonymous": false,
      "inputs": [
        {
          "indexed": false,
          "internalType": "uint256",
          "name": "oldQuorumNumerator",
          "type": "uint256"
        },
        {
          "indexed": false,
          "internalType": "uint256",
          "name": "newQuorumNumerator",
          "type": "uint256"
        }
      ],
      "name": "QuorumNumeratorUpdated",
      "type": "event"
    },
    {
      "anonymous": false,
      "inputs": [
        {
          "indexed": true,
          "internalType": "address",
          "name": "voter",
          "type": "address"
        },
        {
          "indexed": false,
          "internalType": "uint256",
          "name": "proposalId",
          "type": "uint256"
        },
        {
          "indexed": false,
          "internalType": "uint8",
          "name": "support",
          "type": "uint8"
        },
        {
          "indexed": false,
          "internalType": "uint256",
          "name": "weight",
          "type": "uint256"
        },
        {
          "indexed": false,
          "internalType": "string",
          "name": "reason",
          "type": "string"
        }
      ],
      "name": "VoteCast",
      "type": "event"
    },
    {
      "anonymous": false,
      "inputs": [
        {
          "indexed": true,
          "internalType": "address",
          "name": "voter",
          "type": "address"
        },
        {
          "indexed": false,
          "internalType": "uint256",
          "name": "proposalId",
          "type": "uint256"
        },
        {
          "indexed": false,
          "internalType": "uint8",
          "name": "support",
          "type": "uint8"
        },
        {
          "indexed": false,
          "internalType": "uint256",
          "name": "weight",
          "type": "uint256"
        },
        {
          "indexed": false,
          "internalType": "string",
          "name": "reason",
          "type": "string"
        },
        {
          "indexed": false,
          "internalType": "bytes",
          "name": "params",
          "type": "bytes"
        }
      ],
      "name": "VoteCastWithParams",
      "type": "event"
    },
    {
      "anonymous": false,
      "inputs": [
        {
          "indexed": false,
          "internalType": "uint256",
          "name": "oldVotingDelay",
          "type": "uint256"
        },
        {
          "indexed": false,
          "internalType": "uint256",
          "name": "newVotingDelay",
          "type": "uint256"
        }
      ],
      "name": "VotingDelaySet",
      "type": "event"
    },
    {
      "anonymous": false,
      "inputs": [
        {
          "indexed": false,
          "internalType": "uint256",
          "name": "oldVotingPeriod",
          "type": "uint256"
        },
        {
          "indexed": false,
          "internalType": "uint256",
          "name": "newVotingPeriod",
          "type": "uint256"
        }
      ],
      "name": "VotingPeriodSet",
      "type": "event"
    },
    {
      "inputs": [],
      "name": "BALLOT_TYPEHASH",
      "outputs": [
        {
          "internalType": "bytes32",
          "name": "",
          "type": "bytes32"
        }
      ],
      "stateMutability": "view",
      "type": "function"
    },
    {
      "inputs": [],
      "name": "CLOCK_MODE",
      "outputs": [
        {
          "internalType": "string",
          "name": "",
          "type": "string"
        }
      ],
      "stateMutability": "view",
      "type": "function"
    },
    {
      "inputs": [],
      "name": "COUNTING_MODE",
      "outputs": [
        {
          "internalType": "string",
          "name": "",
          "type": "string"
        }
      ],
      "stateMutability": "pure",
      "type": "function"
    },
    {
      "inputs": [],
      "name": "EXTENDED_BALLOT_TYPEHASH",
      "outputs": [
        {
          "internalType": "bytes32",
          "name": "",
          "type": "bytes32"
        }
      ],
      "stateMutability": "view",
      "type": "function"
    },
    {
      "inputs": [
        {
          "internalType": "address[]",
          "name": "targets",
          "type": "address[]"
        },
        {
          "internalType": "uint256[]",
          "name": "values",
          "type": "uint256[]"
        },
        {
          "internalType": "bytes[]",
          "name": "calldatas",
          "type": "bytes[]"
        },
        {
          "internalType": "bytes32",
          "name": "descriptionHash",
          "type": "bytes32"
        }
      ],
      "name": "cancel",
      "outputs": [
        {
          "internalType": "uint256",
          "name": "",
          "type": "uint256"
        }
      ],
      "stateMutability": "nonpayable",
      "type": "function"
    },
    {
      "inputs": [
        {
          "internalType": "uint256",
          "name": "proposalId",
          "type": "uint256"
        },
        {
          "internalType": "uint8",
          "name": "support",
          "type": "uint8"
        }
      ],
      "name": "castVote",
      "outputs": [
        {
          "internalType": "uint256",
          "name": "",
          "type": "uint256"
        }
      ],
      "stateMutability": "nonpayable",
      "type": "function"
    },
    {
      "inputs": [
        {
          "internalType": "uint256",
          "name": "proposalId",
          "type": "uint256"
        },
        {
          "internalType": "uint8",
          "name": "support",
          "type": "uint8"
        },
        {
          "internalType": "uint8",
          "name": "v",
          "type": "uint8"
        },
        {
          "internalType": "bytes32",
          "name": "r",
          "type": "bytes32"
        },
        {
          "internalType": "bytes32",
          "name": "s",
          "type": "bytes32"
        }
      ],
      "name": "castVoteBySig",
      "outputs": [
        {
          "internalType": "uint256",
          "name": "",
          "type": "uint256"
        }
      ],
      "stateMutability": "nonpayable",
      "type": "function"
    },
    {
      "inputs": [
        {
          "internalType": "uint256",
          "name": "proposalId",
          "type": "uint256"
        },
        {
          "internalType": "uint8",
          "name": "support",
          "type": "uint8"
        },
        {
          "internalType": "string",
          "name": "reason",
          "type": "string"
        }
      ],
      "name": "castVoteWithReason",
      "outputs": [
        {
          "internalType": "uint256",
          "name": "",
          "type": "uint256"
        }
      ],
      "stateMutability": "nonpayable",
      "type": "function"
    },
    {
      "inputs": [
        {
          "internalType": "uint256",
          "name": "proposalId",
          "type": "uint256"
        },
        {
          "internalType": "uint8",
          "name": "support",
          "type": "uint8"
        },
        {
          "internalType": "string",
          "name": "reason",
          "type": "string"
        },
        {
          "internalType": "bytes",
          "name": "params",
          "type": "bytes"
        }
      ],
      "name": "castVoteWithReasonAndParams",
      "outputs": [
        {
          "internalType": "uint256",
          "name": "",
          "type": "uint256"
        }
      ],
      "stateMutability": "nonpayable",
      "type": "function"
    },
    {
      "inputs": [
        {
          "internalType": "uint256",
          "name": "proposalId",
          "type": "uint256"
        },
        {
          "internalType": "uint8",
          "name": "support",
          "type": "uint8"
        },
        {
          "internalType": "string",
          "name": "reason",
          "type": "string"
        },
        {
          "internalType": "bytes",
          "name": "params",
          "type": "bytes"
        },
        {
          "internalType": "uint8",
          "name": "v",
          "type": "uint8"
        },
        {
          "internalType": "bytes32",
          "name": "r",
          "type": "bytes32"
        },
        {
          "internalType": "bytes32",
          "name": "s",
          "type": "bytes32"
        }
      ],
      "name": "castVoteWithReasonAndParamsBySig",
      "outputs": [
        {
          "internalType": "uint256",
          "name": "",
          "type": "uint256"
        }
      ],
      "stateMutability": "nonpayable",
      "type": "function"
    },
    {
      "inputs": [],
      "name": "clock",
      "outputs": [
        {
          "internalType": "uint48",
          "name": "",
          "type": "uint48"
        }
      ],
      "stateMutability": "view",
      "type": "function"
    },
    {
      "inputs": [],
      "name": "eip712Domain",
      "outputs": [
        {
          "internalType": "bytes1",
          "name": "fields",
          "type": "bytes1"
        },
        {
          "internalType": "string",
          "name": "name",
          "type": "string"
        },
        {
          "internalType": "string",
          "name": "version",
          "type": "string"
        },
        {
          "internalType": "uint256",
          "name": "chainId",
          "type": "uint256"
        },
        {
          "internalType": "address",
          "name": "verifyingContract",
          "type": "address"
        },
        {
          "internalType": "bytes32",
          "name": "salt",
          "type": "bytes32"
        },
        {
          "internalType": "uint256[]",
          "name": "extensions",
          "type": "uint256[]"
        }
      ],
      "stateMutability": "view",
      "type": "function"
    },
    {
      "inputs": [
        {
          "internalType": "address[]",
          "name": "targets",
          "type": "address[]"
        },
        {
          "internalType": "uint256[]",
          "name": "values",
          "type": "uint256[]"
        },
        {
          "internalType": "bytes[]",
          "name": "calldatas",
          "type": "bytes[]"
        },
        {
          "internalType": "bytes32",
          "name": "descriptionHash",
          "type": "bytes32"
        }
      ],
      "name": "execute",
      "outputs": [
        {
          "internalType": "uint256",
          "name": "",
          "type": "uint256"
        }
      ],
      "stateMutability": "payable",
      "type": "function"
    },
    {
      "inputs": [
        {
          "internalType": "address",
          "name": "account",
          "type": "address"
        },
        {
          "internalType": "uint256",
          "name": "timepoint",
          "type": "uint256"
        }
      ],
      "name": "getVotes",
      "outputs": [
        {
          "internalType": "uint256",
          "name": "",
          "type": "uint256"
        }
      ],
      "stateMutability": "view",
      "type": "function"
    },
    {
      "inputs": [
        {
          "internalType": "address",
          "name": "account",
          "type": "address"
        },
        {
          "internalType": "uint256",
          "name": "timepoint",
          "type": "uint256"
        },
        {
          "internalType": "bytes",
          "name": "params",
          "type": "bytes"
        }
      ],
      "name": "getVotesWithParams",
      "outputs": [
        {
          "internalType": "uint256",
          "name": "",
          "type": "uint256"
        }
      ],
      "stateMutability": "view",
      "type": "function"
    },
    {
      "inputs": [
        {
          "internalType": "uint256",
          "name": "proposalId",
          "type": "uint256"
        },
        {
          "internalType": "address",
          "name": "account",
          "type": "address"
        }
      ],
      "name": "hasVoted",
      "outputs": [
        {
          "internalType": "bool",
          "name": "",
          "type": "bool"
        }
      ],
      "stateMutability": "view",
      "type": "function"
    },
    {
      "inputs": [
        {
          "internalType": "address[]",
          "name": "targets",
          "type": "address[]"
        },
        {
          "internalType": "uint256[]",
          "name": "values",
          "type": "uint256[]"
        },
        {
          "internalType": "bytes[]",
          "name": "calldatas",
          "type": "bytes[]"
        },
        {
          "internalType": "bytes32",
          "name": "descriptionHash",
          "type": "bytes32"
        }
      ],
      "name": "hashProposal",
      "outputs": [
        {
          "internalType": "uint256",
          "name": "",
          "type": "uint256"
        }
      ],
      "stateMutability": "pure",
      "type": "function"
    },
    {
      "inputs": [],
      "name": "name",
      "outputs": [
        {
          "internalType": "string",
          "name": "",
          "type": "string"
        }
      ],
      "stateMutability": "view",
      "type": "function"
    },
    {
      "inputs": [
        {
          "internalType": "address",
          "name": "",
          "type": "address"
        },
        {
          "internalType": "address",
          "name": "",
          "type": "address"
        },
        {
          "internalType": "uint256[]",
          "name": "",
          "type": "uint256[]"
        },
        {
          "internalType": "uint256[]",
          "name": "",
          "type": "uint256[]"
        },
        {
          "internalType": "bytes",
          "name": "",
          "type": "bytes"
        }
      ],
      "name": "onERC1155BatchReceived",
      "outputs": [
        {
          "internalType": "bytes4",
          "name": "",
          "type": "bytes4"
        }
      ],
      "stateMutability": "nonpayable",
      "type": "function"
    },
    {
      "inputs": [
        {
          "internalType": "address",
          "name": "",
          "type": "address"
        },
        {
          "internalType": "address",
          "name": "",
          "type": "address"
        },
        {
          "internalType": "uint256",
          "name": "",
          "type": "uint256"
        },
        {
          "internalType": "uint256",
          "name": "",
          "type": "uint256"
        },
        {
          "internalType": "bytes",
          "name": "",
          "type": "bytes"
        }
      ],
      "name": "onERC1155Received",
      "outputs": [
        {
          "internalType": "bytes4",
          "name": "",
          "type": "bytes4"
        }
      ],
      "stateMutability": "nonpayable",
      "type": "function"
    },
    {
      "inputs": [
        {
          "internalType": "address",
          "name": "",
          "type": "address"
        },
        {
          "internalType": "address",
          "name": "",
          "type": "address"
        },
        {
          "internalType": "uint256",
          "name": "",
          "type": "uint256"
        },
        {
          "internalType": "bytes",
          "name": "",
          "type": "bytes"
        }
      ],
      "name": "onERC721Received",
      "outputs": [
        {
          "internalType": "bytes4",
          "name": "",
          "type": "bytes4"
        }
      ],
      "stateMutability": "nonpayable",
      "type": "function"
    },
    {
      "inputs": [
        {
          "internalType": "uint256",
          "name": "proposalId",
          "type": "uint256"
        }
      ],
      "name": "proposalDeadline",
      "outputs": [
        {
          "internalType": "uint256",
          "name": "",
          "type": "uint256"
        }
      ],
      "stateMutability": "view",
      "type": "function"
    },
    {
      "inputs": [
        {
          "internalType": "uint256",
          "name": "proposalId",
          "type": "uint256"
        }
      ],
      "name": "proposalProposer",
      "outputs": [
        {
          "internalType": "address",
          "name": "",
          "type": "address"
        }
      ],
      "stateMutability": "view",
      "type": "function"
    },
    {
      "inputs": [
        {
          "internalType": "uint256",
          "name": "proposalId",
          "type": "uint256"
        }
      ],
      "name": "proposalSnapshot",
      "outputs": [
        {
          "internalType": "uint256",
          "name": "",
          "type": "uint256"
        }
      ],
      "stateMutability": "view",
      "type": "function"
    },
    {
      "inputs": [],
      "name": "proposalThreshold",
      "outputs": [
        {
          "internalType": "uint256",
          "name": "",
          "type": "uint256"
        }
      ],
      "stateMutability": "view",
      "type": "function"
    },
    {
      "inputs": [
        {
          "internalType": "uint256",
          "name": "proposalId",
          "type": "uint256"
        }
      ],
      "name": "proposalVotes",
      "outputs": [
        {
          "internalType": "uint256",
          "name": "againstVotes",
          "type": "uint256"
        },
        {
          "internalType": "uint256",
          "name": "forVotes",
          "type": "uint256"
        },
        {
          "internalType": "uint256",
          "name": "abstainVotes",
          "type": "uint256"
        }
      ],
      "stateMutability": "view",
      "type": "function"
    },
    {
      "inputs": [
        {
          "internalType": "address[]",
          "name": "targets",
          "type": "address[]"
        },
        {
          "internalType": "uint256[]",
          "name": "values",
          "type": "uint256[]"
        },
        {
          "internalType": "bytes[]",
          "name": "calldatas",
          "type": "bytes[]"
        },
        {
          "internalType": "string",
          "name": "description",
          "type": "string"
        }
      ],
      "name": "propose",
      "outputs": [
        {
          "internalType": "uint256",
          "name": "",
          "type": "uint256"
        }
      ],
      "stateMutability": "nonpayable",
      "type": "function"
    },
    {
      "inputs": [
        {
          "internalType": "uint256",
          "name": "blockNumber",
          "type": "uint256"
        }
      ],
      "name": "quorum",
      "outputs": [
        {
          "internalType": "uint256",
          "name": "",
          "type": "uint256"
        }
      ],
      "stateMutability": "view",
      "type": "function"
    },
    {
      "inputs": [],
      "name": "quorumDenominator",
      "outputs": [
        {
          "internalType": "uint256",
          "name": "",
          "type": "uint256"
        }
      ],
      "stateMutability": "view",
      "type": "function"
    },
    {
      "inputs": [
        {
          "internalType": "uint256",
          "name": "timepoint",
          "type": "uint256"
        }
      ],
      "name": "quorumNumerator",
      "outputs": [
        {
          "internalType": "uint256",
          "name": "",
          "type": "uint256"
        }
      ],
      "stateMutability": "view",
      "type": "function"
    },
    {
      "inputs": [],
      "name": "quorumNumerator",
      "outputs": [
        {
          "internalType": "uint256",
          "name": "",
          "type": "uint256"
        }
      ],
      "stateMutability": "view",
      "type": "function"
    },
    {
      "inputs": [
        {
          "internalType": "address",
          "name": "target",
          "type": "address"
        },
        {
          "internalType": "uint256",
          "name": "value",
          "type": "uint256"
        },
        {
          "internalType": "bytes",
          "name": "data",
          "type": "bytes"
        }
      ],
      "name": "relay",
      "outputs": [],
      "stateMutability": "payable",
      "type": "function"
    },
    {
      "inputs": [
        {
          "internalType": "uint256",
          "name": "newProposalThreshold",
          "type": "uint256"
        }
      ],
      "name": "setProposalThreshold",
      "outputs": [],
      "stateMutability": "nonpayable",
      "type": "function"
    },
    {
      "inputs": [
        {
          "internalType": "uint256",
          "name": "newVotingDelay",
          "type": "uint256"
        }
      ],
      "name": "setVotingDelay",
      "outputs": [],
      "stateMutability": "nonpayable",
      "type": "function"
    },
    {
      "inputs": [
        {
          "internalType": "uint256",
          "name": "newVotingPeriod",
          "type": "uint256"
        }
      ],
      "name": "setVotingPeriod",
      "outputs": [],
      "stateMutability": "nonpayable",
      "type": "function"
    },
    {
      "inputs": [
        {
          "internalType": "uint256",
          "name": "proposalId",
          "type": "uint256"
        }
      ],
      "name": "state",
      "outputs": [
        {
          "internalType": "enum IGovernor.ProposalState",
          "name": "",
          "type": "uint8"
        }
      ],
      "stateMutability": "view",
      "type": "function"
    },
    {
      "inputs": [
        {
          "internalType": "bytes4",
          "name": "interfaceId",
          "type": "bytes4"
        }
      ],
      "name": "supportsInterface",
      "outputs": [
        {
          "internalType": "bool",
          "name": "",
          "type": "bool"
        }
      ],
      "stateMutability": "view",
      "type": "function"
    },
    {
      "inputs": [],
      "name": "token",
      "outputs": [
        {
          "internalType": "contract IERC5805",
          "name": "",
          "type": "address"
        }
      ],
      "stateMutability": "view",
      "type": "function"
    },
    {
      "inputs": [
        {
          "internalType": "uint256",
          "name": "newQuorumNumerator",
          "type": "uint256"
        }
      ],
      "name": "updateQuorumNumerator",
      "outputs": [],
      "stateMutability": "nonpayable",
      "type": "function"
    },
    {
      "inputs": [],
      "name": "version",
      "outputs": [
        {
          "internalType": "string",
          "name": "",
          "type": "string"
        }
      ],
      "stateMutability": "view",
      "type": "function"
    },
    {
      "inputs": [],
      "name": "votingDelay",
      "outputs": [
        {
          "internalType": "uint256",
          "name": "",
          "type": "uint256"
        }
      ],
      "stateMutability": "view",
      "type": "function"
    },
    {
      "inputs": [],
      "name": "votingPeriod",
      "outputs": [
        {
          "internalType": "uint256",
          "name": "",
          "type": "uint256"
        }
      ],
      "stateMutability": "view",
      "type": "function"
    },
    {
      "stateMutability": "payable",
      "type": "receive"
    }
  ],
  "transactionHash": "0x2c218c7f808a951feb31cf576e7b79e6197ac6955e1cdd3bd613a3ef592408d1",
  "args": [
    "0x6fCC03Bd5d18e875a7E09Fc90ab41D66be1f6E2c"
  ],
  "numDeployments": 1,
  "solcInputHash": "005ded89e3ed0349ad2270743ee3c4a8",
  "bytecode": "0x61018060405234620000b3576200001f6200001962000141565b620001a8565b6040516135a5908162000d90823960805181612fd3015260a05181613088015260c05181612f9d015260e051816130220152610100518161304801526101205181611198015261014051816111c40152610160518181816112fa015281816116dd015281816117fe015281816118a0015281816122c6015281816125de0152818161280c015281816128e301526129e80152f35b600080fd5b634e487b7160e01b600052604160045260246000fd5b604081019081106001600160401b03821117620000ea57604052565b620000b8565b60c081019081106001600160401b03821117620000ea57604052565b601f909101601f19168101906001600160401b03821190821017620000ea57604052565b604051906200013f82620000ce565b565b62004355602081380391826040519384926200015e82856200010c565b833981010312620000b357516001600160a01b0381168103620000b35790565b604051906200018d82620000ce565b60088252565b60405190620001a282620000ce565b60018252565b62000273620001b66200017e565b60208101674675656c6944414f60c01b8152620001d262000193565b906020820190603160f81b8252620001ea84620009b4565b61012052620001f98362000ac2565b6101405283519020918260e05251902080610100524660a0526040519060208201927f8b73c3c69bb8fe3d512ecc4cf759cc79239f7b179b0ffacaa9a75d522b39400f8452604083015260608201524660808201523060a082015260a081526200026381620000f0565b5190206080523060c052620003f2565b6200027d620004e5565b6200028762000521565b620002916200055e565b6001600160a01b0316610160526200013f62000605565b90600182811c92168015620002da575b6020831014620002c457565b634e487b7160e01b600052602260045260246000fd5b91607f1691620002b8565b601f8111620002f2575050565b6000906002825260208220906020601f850160051c8301941062000333575b601f0160051c01915b8281106200032757505050565b8181556001016200031a565b909250829062000311565b601f81116200034b575050565b60009081805260208220906020601f850160051c830194106200038b575b601f0160051c01915b8281106200037f57505050565b81815560010162000372565b909250829062000369565b90601f8211620003a4575050565b60019160009083825260208220906020601f850160051c83019410620003e7575b601f0160051c01915b828110620003dc5750505050565b8181558301620003ce565b9092508290620003c5565b80519091906001600160401b038111620000ea576200041e8162000418600254620002a8565b620002e5565b602080601f83116001146200045d575081929360009262000451575b50508160011b916000199060031b1c191617600255565b0151905038806200043a565b6002600052601f198316949091907f405787fa12a823e0f2b7631cc41b3ba8828b3321ca811111fa75cd3aa3bb5ace926000905b878210620004cc575050836001959610620004b2575b505050811b01600255565b015160001960f88460031b161c19169055388080620004a7565b8060018596829496860151815501950193019062000491565b6006546040519081527fc565b045403dc03c2eea82b81a0465edad9e2e7fc4d97e11421c209da93d7a93604061384092836020820152a1600655565b6007546040519081527f7e3f7f0708a84de9203036abaa450dccc85ad5ff52f78c170f3edb55cf5e88286040620189c092836020820152a1600755565b6008546040519081527fccb45da8d5717e6c4544694297c4ba5cf151d455c9bb0ed4fc7a38411bc054616040683635c9adc5dea0000092836020820152a1600855565b600b5468010000000000000000811015620000ea576001810180600b55811015620005ef57600b6000526020600020019063ffffffff81511690602063ffffffff1991015160201b16179055565b634e487b7160e01b600052603260045260246000fd5b600b548015906000908215620006d6575050620006896000805160206200433583398151915291600a54905b8115159081620006cd575b506200068e575b620006706200066a620006646200065962000740565b65ffffffffffff1690565b62000d29565b6200087e565b5050604080519182526005602083015290918291820190565b0390a1565b620006c76200069d8262000c57565b620006c1620006ab62000130565b600081526001600160e01b039092166020830152565b620005a1565b62000643565b9050386200063c565b6000199181838101116200072c57600b9052017f0175b7a638427703f0dbe7bb9bbf987a2551717b34e79f33b5b1008d1fa01db901546000805160206200433583398151915291620006899160201c9062000631565b634e487b7160e01b81526011600452602490fd5b610160516040516324776b7d60e21b815290602090829060049082906001600160a01b03165afa809160009162000788575b5090620007855750620007854362000cc1565b90565b6020813d8211620007cd575b81620007a3602093836200010c565b81010312620007c957519065ffffffffffff82168203620007c657503862000772565b80fd5b5080fd5b3d915062000794565b600019810191908211620007e657565b634e487b7160e01b600052601160045260246000fd5b604080519192919081016001600160401b03811182821017620000ea57604052602081935463ffffffff81168352811c910152565b156200083957565b60405162461bcd60e51b815260206004820152601b60248201527f436865636b706f696e743a2064656372656173696e67206b65797300000000006044820152606490fd5b600b5480156200098b57620009539181620008d3620008cd620008a3602095620007d6565b600b6000527f0175b7a638427703f0dbe7bb9bbf987a2551717b34e79f33b5b1008d1fa01db90190565b620007fc565b91620008e3835163ffffffff1690565b620008fc63ffffffff9182841692839116111562000831565b620009186200090f855163ffffffff1690565b63ffffffff1690565b0362000959575062000932620008a36200094592620007d6565b64050000000063ffffffff825416179055565b01516001600160e01b031690565b90600590565b620009859150620009796200096d62000130565b63ffffffff9092168252565b600581850152620005a1565b62000945565b50620009ac906200099f6200096d62000130565b60056020820152620005a1565b600090600590565b908151602090818110600014620009d357505090620007859062000bda565b6001600160401b038111620000ea57600091620009fc82620009f68554620002a8565b6200033e565b80601f831160011462000a3b575082939482939262000a2f575b50508160011b916000199060031b1c191617905560ff90565b01519050388062000a16565b60008052601f198316957f290decd9548b62a8d60345a988386fc84ba6bc95484008f6362f93160ef3e563929185905b88821062000aa95750508360019596971062000a8f575b505050811b01905560ff90565b015160001960f88460031b161c1916905538808062000a82565b8060018596829496860151815501950193019062000a6b565b90815160209081811060001462000ae157505090620007859062000bda565b6001600160401b038111620000ea5760019162000b0a8262000b048554620002a8565b62000396565b80601f831160011462000b4957508192939460009262000b3d575b5050600019600383901b1c191690821b17905560ff90565b01519050388062000b25565b6001600052601f198316959091907fb10e2d527612073b26eecdfd717e6a320cf44b4afac2b0732d9fcbe2b7fa0cf6926000905b88821062000b9e575050838596971062000a8f57505050811b01905560ff90565b80878596829496860151815501950193019062000b7d565b60208151910151906020811062000bcb575090565b6000199060200360031b1b1690565b601f81511162000bf55762000bef8162000bb6565b90511790565b6040519063305a27a960e01b82528160208060048301528251908160248401526000935b82851062000c3d575050604492506000838284010152601f80199101168101030190fd5b848101820151868601604401529381019385935062000c19565b6001600160e01b039081811162000c6c571690565b60405162461bcd60e51b815260206004820152602760248201527f53616665436173743a2076616c756520646f65736e27742066697420696e20326044820152663234206269747360c81b6064820152608490fd5b65ffffffffffff9081811162000cd5571690565b60405162461bcd60e51b815260206004820152602660248201527f53616665436173743a2076616c756520646f65736e27742066697420696e203460448201526538206269747360d01b6064820152608490fd5b63ffffffff9081811162000d3b571690565b60405162461bcd60e51b815260206004820152602660248201527f53616665436173743a2076616c756520646f65736e27742066697420696e203360448201526532206269747360d01b6064820152608490fdfe6080604052600436101561001b575b361561001957600080fd5b005b60003560e01c806301ffc9a7146102bb57806302a251a3146102b657806303420181146102b157806306f3f9e6146102ac57806306fdde03146102a7578063143489d0146102a2578063150b7a021461029d5780632656227d146102985780632d63f693146102935780632fe3e2611461028e5780633932abb1146102895780633bccf4fd146102845780633e4f49e61461027f578063438596321461027a578063452115d6146102755780634bf5d7e914610270578063544ffc9c1461026b57806354fd4d501461026657806356781388146102615780635f398a141461025c57806360c4247f1461025757806370b0f660146102525780637b3c71d31461024d5780637d5e81e21461024857806384b0196e1461024357806391ddadf41461023e57806397c3d334146102395780639a802a6d14610234578063a7713a701461022f578063b58131b01461022a578063bc197c8114610225578063c01f9e3714610220578063c28bc2fa1461021b578063c59057e414610216578063dd4e2ba514610211578063deaaa7cc1461020c578063ea0217cf14610207578063eb9019d414610202578063ece40cc1146101fd578063f23a6e61146101f8578063f8ce560a146101f35763fc0c546a0361000e5761188a565b6117ce565b611779565b611721565b611685565b6115d2565b611597565b611539565b61151d565b61146b565b611433565b6113ab565b61138d565b611372565b611290565b611274565b611249565b61117f565b6110b2565b61105d565b611005565b610fe7565b610f78565b610f28565b610ee6565b610ea3565b610e73565b610db0565b610d5b565b610d2c565b610c5f565b610c41565b610c06565b610bd1565b610acc565b6108b2565b61084f565b610773565b6105bf565b610537565b61036b565b346103665760203660031901126103665760043563ffffffff60e01b81168091036103665761031e9063bf26d89760e01b8114908115610355575b8115610344575b8115610333575b8115610322575b5060405190151581529081906020820190565b0390f35b6301ffc9a760e01b1490503861030b565b630271189760e51b81149150610304565b63288ace0360e11b811491506102fd565b6379dd796f60e01b811491506102f6565b600080fd5b34610366576000366003190112610366576020600754604051908152f35b6024359060ff8216820361036657565b6044359060ff8216820361036657565b9181601f84011215610366578235916001600160401b038311610366576020838186019501011161036657565b634e487b7160e01b600052604160045260246000fd5b604081019081106001600160401b0382111761040757604052565b6103d6565b608081019081106001600160401b0382111761040757604052565b602081019081106001600160401b0382111761040757604052565b606081019081106001600160401b0382111761040757604052565b60c081019081106001600160401b0382111761040757604052565b90601f801991011681019081106001600160401b0382111761040757604052565b604051906104a6826103ec565b565b6040519060e082018281106001600160401b0382111761040757604052565b6001600160401b03811161040757601f01601f191660200190565b9291926104ee826104c7565b916104fc6040519384610478565b829481845281830111610366578281602093846000960137010152565b9080601f8301121561036657816020610534933591016104e2565b90565b346103665760e036600319011261036657610550610389565b6001600160401b03604435818111610366576105709036906004016103a9565b9160643590811161036657610589903690600401610519565b9260843560ff811681036103665761031e946105af9460c4359460a43594600435612312565b6040519081529081906020820190565b34610366576020366003190112610366576004356105de303314612552565b606481116106a3577f0553476bf02ef2726e8ce5ced78d63e26e602e4a2257b1f559418e24b463399790610610612a1c565b80151580610699575b610662575b61064e61063f61063a61062f6127f7565b65ffffffffffff1690565b6134ea565b610648846133b2565b90612cd7565b5050604080519182526020820192909252a1005b61069461066e826133b2565b61068f610679610499565b600081526001600160e01b039092166020830152565b612bf8565b61061e565b50600b5415610619565b60405162461bcd60e51b815260206004820152604360248201527f476f7665726e6f72566f74657351756f72756d4672616374696f6e3a2071756f60448201527f72756d4e756d657261746f72206f7665722071756f72756d44656e6f6d696e616064820152623a37b960e91b608482015260a490fd5b60005b83811061072d5750506000910152565b818101518382015260200161071d565b906020916107568151809281855285808601910161071a565b601f01601f1916010190565b90602061053492818152019061073d565b346103665760008060031936011261084c5760405181600254610795816118cf565b8084529060019081811690811561082457506001146107cb575b61031e846107bf81880382610478565b60405191829182610762565b60028352602094507f405787fa12a823e0f2b7631cc41b3ba8828b3321ca811111fa75cd3aa3bb5ace5b828410610811575050508161031e936107bf92820101936107af565b80548585018701529285019281016107f5565b61031e96506107bf9450602092508593915060ff191682840152151560051b820101936107af565b80fd5b34610366576020366003190112610366576004356000526003602052602060018060a01b0360406000205460401c16604051908152f35b600435906001600160a01b038216820361036657565b602435906001600160a01b038216820361036657565b34610366576080366003190112610366576108cb610886565b506108d461089c565b506064356001600160401b038111610366576108f4903690600401610519565b50604051630a85bd0160e11b8152602090f35b6001600160401b0381116104075760051b60200190565b81601f820112156103665780359161093583610907565b926109436040519485610478565b808452602092838086019260051b820101928311610366578301905b82821061096d575050505090565b81356001600160a01b038116810361036657815290830190830161095f565b81601f82011215610366578035916109a383610907565b926109b16040519485610478565b808452602092838086019260051b820101928311610366578301905b8282106109db575050505090565b813581529083019083016109cd565b9080601f8301121561036657813590610a0282610907565b92610a106040519485610478565b828452602092838086019160051b8301019280841161036657848301915b848310610a3e5750505050505090565b82356001600160401b038111610366578691610a5f84848094890101610519565b815201920191610a2e565b6080600319820112610366576001600160401b03916004358381116103665782610a969160040161091e565b926024358181116103665783610aae9160040161098c565b9260443591821161036657610ac5916004016109ea565b9060643590565b610ae4610ad836610a6a565b818385949693956119a2565b91610aee83611a06565b6008811015610bcc5760048114908115610bb8575b5015610b695761031e936105af92610b386002610b2a876000526003602052604060002090565b01805460ff19166001179055565b6040518581527f712ae1383f79ac853f8d882153778e0260ef8f03b504e2866e0593e04d2b291f90602090a16120c7565b60405162461bcd60e51b815260206004820152602160248201527f476f7665726e6f723a2070726f706f73616c206e6f74207375636365737366756044820152601b60fa1b6064820152608490fd5b60059150610bc581610d22565b1438610b03565b610d0c565b3461036657602036600319011261036657600435600052600360205260206001600160401b0360406000205416604051908152f35b346103665760003660031901126103665760206040517fb3b3f3b703cd84ce352197dcff232b1b5d3cfb2025ce47cf04742d0651f1af888152f35b34610366576000366003190112610366576020600654604051908152f35b346103665760a03660031901126103665761031e6105af600435610c81610389565b610cf6610cee610c8f610399565b60405160208101917f150214d74d59b7d1e90c73fc22ef3d991dd0a76b046543d4d80ab92d2a50328f835286604083015260ff8616606083015260608252610cd68261040c565b610ce96084359360643593519020612f74565b612f02565b919091612de7565b60405192610d0384610427565b600084526123ad565b634e487b7160e01b600052602160045260246000fd5b60081115610bcc57565b3461036657602036600319011261036657610d48600435611a06565b6040516008821015610bcc576020918152f35b3461036657604036600319011261036657602060ff610da4610d7b61089c565b6004356000526009845260036040600020019060018060a01b0316600052602052604060002090565b54166040519015158152f35b3461036657610dbe36610a6a565b90610dcb828285876119a2565b92610dd584611a06565b6008811015610bcc57610e2e5761031e94610e29610e22610e16610e066105af986000526003602052604060002090565b5460401c6001600160a01b031690565b6001600160a01b031690565b3314612011565b612183565b60405162461bcd60e51b815260206004820152601c60248201527f476f7665726e6f723a20746f6f206c61746520746f2063616e63656c000000006044820152606490fd5b346103665760003660031901126103665761031e610e8f6128cd565b60405191829160208352602083019061073d565b3461036657602036600319011261036657600435600052600960205260606040600020805490600260018201549101549060405192835260208301526040820152f35b346103665760003660031901126103665761031e604051610f06816103ec565b60018152603160f81b602082015260405191829160208352602083019061073d565b34610366576040366003190112610366576020610f70610f46610389565b604051610f5281610427565b6000815260405191610f6383610427565b6000835233600435612429565b604051908152f35b3461036657608036600319011261036657610f91610389565b6001600160401b039060443582811161036657610fb29036906004016103a9565b909160643593841161036657610fdd610f7093610fd56020963690600401610519565b9336916104e2565b9033600435612429565b34610366576020366003190112610366576020610f70600435612a8a565b3461036657602036600319011261036657600435611024303314612552565b60065460408051918252602082018390527fc565b045403dc03c2eea82b81a0465edad9e2e7fc4d97e11421c209da93d7a9391a1600655005b3461036657606036600319011261036657611076610389565b6044356001600160401b038111610366576020916110a561109e610f709336906004016103a9565b36916104e2565b60405191610f6383610427565b34610366576080366003190112610366576001600160401b03600435818111610366576110e390369060040161091e565b90602435818111610366576110fc90369060040161098c565b91604435828111610366576111159036906004016109ea565b60643592831161036657366023840112156103665761031e936111456105af9436906024816004013591016104e2565b92611eaa565b90815180825260208080930193019160005b82811061116b575050505090565b83518552938101939281019260010161115d565b346103665760003660031901126103665761121a6111bc7f00000000000000000000000000000000000000000000000000000000000000006130ae565b61031e6111e87f00000000000000000000000000000000000000000000000000000000000000006131a4565b611228604051916111f883610427565b60008352604051958695600f60f81b875260e0602088015260e087019061073d565b90858203604087015261073d565b90466060850152306080850152600060a085015283820360c085015261114b565b346103665760003660031901126103665760206112646127f7565b65ffffffffffff60405191168152f35b3461036657600036600319011261036657602060405160648152f35b34610366576060366003190112610366576112a9610886565b6044356001600160401b038111610366576044916112cd6020923690600401610519565b50604051630748d63560e31b81526001600160a01b039182166004820152602480359082015292839182907f0000000000000000000000000000000000000000000000000000000000000000165afa801561136d5761031e9160009161133f575b506040519081529081906020820190565b611360915060203d8111611366575b6113588183610478565b8101906129a8565b3861132e565b503d61134e565b6127eb565b34610366576000366003190112610366576020610f70612a1c565b34610366576000366003190112610366576020600854604051908152f35b346103665760a0366003190112610366576113c4610886565b506113cd61089c565b506001600160401b03604435818111610366576113ee90369060040161098c565b506064358181116103665761140790369060040161098c565b5060843590811161036657611420903690600401610519565b5060405163bc197c8160e01b8152602090f35b3461036657602036600319011261036657600435600052600360205260206001600160401b0360016040600020015416604051908152f35b60603660031901126103665761147f610886565b604435906001600160401b03821161036657600080916114a66100199436906004016103a9565b906114b2303314612552565b81604051928392833781018481520391602435905af16114d0612097565b604051916114dd83610442565b602883527f476f7665726e6f723a2072656c617920726576657274656420776974686f7574602084015267206d65737361676560c01b6040840152612c4d565b34610366576020610f7061153036610a6a565b929190916119a2565b346103665760003660031901126103665761031e604051611559816103ec565b602081527f737570706f72743d627261766f2671756f72756d3d666f722c6162737461696e602082015260405191829160208352602083019061073d565b346103665760003660031901126103665760206040517f150214d74d59b7d1e90c73fc22ef3d991dd0a76b046543d4d80ab92d2a50328f8152f35b34610366576020366003190112610366576004356115f1303314612552565b80156116305760075460408051918252602082018390527f7e3f7f0708a84de9203036abaa450dccc85ad5ff52f78c170f3edb55cf5e882891a1600755005b60405162461bcd60e51b815260206004820152602760248201527f476f7665726e6f7253657474696e67733a20766f74696e6720706572696f6420604482015266746f6f206c6f7760c81b6064820152608490fd5b3461036657604036600319011261036657604460206116a2610886565b60006040516116b081610427565b52604051630748d63560e31b81526001600160a01b039182166004820152602480359082015292839182907f0000000000000000000000000000000000000000000000000000000000000000165afa801561136d5761031e9160009161133f57506040519081529081906020820190565b3461036657602036600319011261036657600435611740303314612552565b60085460408051918252602082018390527fccb45da8d5717e6c4544694297c4ba5cf151d455c9bb0ed4fc7a38411bc0546191a1600855005b346103665760a036600319011261036657611792610886565b5061179b61089c565b506084356001600160401b038111610366576117bb903690600401610519565b5060405163f23a6e6160e01b8152602090f35b3461036657602036600319011261036657604051632394e7a360e21b8152600480359082018190526020826024817f00000000000000000000000000000000000000000000000000000000000000006001600160a01b03165afa91821561136d57600092611866575b5061184190612a8a565b908181029181830414901517156118615760405160649091048152602090f35b611b52565b6118419192506118839060203d8111611366576113588183610478565b9190611837565b34610366576000366003190112610366576040517f00000000000000000000000000000000000000000000000000000000000000006001600160a01b03168152602090f35b90600182811c921680156118ff575b60208310146118e957565b634e487b7160e01b600052602260045260246000fd5b91607f16916118de565b90815180825260208080930193019160005b828110611929575050505090565b83516001600160a01b03168552938101939281019260010161191b565b908082519081815260208091019281808460051b8301019501936000915b8483106119745750505050505090565b9091929394958480611992600193601f198682030187528a5161073d565b9801930193019194939290611964565b92906119ee92611a00926040519485926119de6119cb602086019960808b5260a0870190611909565b601f19968787830301604088015261114b565b9085858303016060860152611946565b90608083015203908101835282610478565b51902090565b6002611a1c826000526003602052604060002090565b015460ff8116611b4b5760081c60ff16611b4557611a63611a57611a4a836000526003602052604060002090565b546001600160401b031690565b6001600160401b031690565b8015611afc57611a7461062f6127f7565b80911015611af557611aa6611a576001611a98856000526003602052604060002090565b01546001600160401b031690565b1015611aef57611ab581612599565b9081611acc575b5015611ac757600490565b600390565b611ae9915060005260096020526040600020600181015490541090565b38611abc565b50600190565b5050600090565b60405162461bcd60e51b815260206004820152601d60248201527f476f7665726e6f723a20756e6b6e6f776e2070726f706f73616c2069640000006044820152606490fd5b0390fd5b50600290565b5050600790565b634e487b7160e01b600052601160045260246000fd5b60001981019190821161186157565b15611b7e57565b60405162461bcd60e51b815260206004820152603160248201527f476f7665726e6f723a2070726f706f73657220766f7465732062656c6f7720706044820152701c9bdc1bdcd85b081d1a1c995cda1bdb19607a1b6064820152608490fd5b15611be457565b60405162461bcd60e51b815260206004820152602160248201527f476f7665726e6f723a20696e76616c69642070726f706f73616c206c656e67746044820152600d60fb1b6064820152608490fd5b15611c3a57565b60405162461bcd60e51b815260206004820152601860248201527711dbdd995c9b9bdc8e88195b5c1d1e481c1c9bdc1bdcd85b60421b6044820152606490fd5b15611c8157565b60405162461bcd60e51b815260206004820152602160248201527f476f7665726e6f723a2070726f706f73616c20616c72656164792065786973746044820152607360f81b6064820152608490fd5b906001820180921161186157565b9190820180921161186157565b815160208301516040808501516001600160401b039384169290911b600160401b600160e01b0316919091176001600160e01b03199091161782556060830151608084015167ffffffffffffffff191691161760018201556104a69190611d7c9060c09060020192611d75611d6360a0830151151590565b859060ff801983541691151516179055565b0151151590565b815461ff00191690151560081b61ff0016179055565b90611d9c82610907565b611da96040519182610478565b8281528092611dba601f1991610907565b019060005b828110611dcb57505050565b806060602080938501015201611dbf565b9592611e0f90611e1d939b9a9899969592885260209b60018060a01b03168c8901526101208060408a0152880190611909565b90868203606088015261114b565b9784890360808601528251808a52818a019180808360051b8d01019501926000905b838210611e7c57505050505061053496975090611e639184820360a0860152611946565b9360c083015260e082015261010081840391015261073d565b90919293958380611e9b8f93600194601f199082030186528a5161073d565b98019201920190939291611e3f565b61200b7f7d84a6263ae0d98d3329bd7b46bb4e8d6f98cd35a7adb45c274c8b7fd5ebd5e09394611edb61062f6127f7565b95611efb611ef1611eeb89611b68565b33612284565b6008541115611b77565b611f69611f10835160208501208388886119a2565b97611f1e8651885114611bdd565b611f2b8651845114611bdd565b611f3786511515611c33565b611f606001600160401b03611f59611a4a8c6000526003602052604060002090565b1615611c7a565b60065490611cde565b611f7560075482611cde565b91611ff3611f828361341b565b611fc5611f8e8661341b565b611fa8611f996104a8565b6001600160401b039094168452565b336020840152600060408401526001600160401b03166060830152565b60006080820152600060a0820152600060c0820152611fee8b6000526003602052604060002090565b611ceb565b611ffd8651611d92565b604051978897338c8a611ddc565b0390a190565b1561201857565b60405162461bcd60e51b815260206004820152602260248201527f476f7665726e6f723a206f6e6c792070726f706f7365722063616e2063616e63604482015261195b60f21b6064820152608490fd5b634e487b7160e01b600052603260045260246000fd5b80518210156120925760209160051b010190565b612068565b3d156120c2573d906120a8826104c7565b916120b66040519384610478565b82523d6000602084013e565b606090565b929192604051916120d783610442565b602783526020947f476f7665726e6f723a2063616c6c20726576657274656420776974686f75742086850152666d65737361676560c81b6040850152600092835b8151811015612179576121678686808b6001600160a01b0361213a878961207e565b5116612146878b61207e565b51612151888b61207e565b5180519301915af1612161612097565b90612c4d565b50600019811461186157600101612118565b5050505050509050565b9061218f9392916119a2565b61219881611a06565b6008811015610bcc576002811415908161226e575b81612259575b5015612214576121e260026121d2836000526003602052604060002090565b01805461ff001916610100179055565b6040518181527f789cf55be980739dad1d0699b93b58e806b51c9d96619bfa8fe0a28abaa7b30c90806020810161200b565b60405162461bcd60e51b815260206004820152601d60248201527f476f7665726e6f723a2070726f706f73616c206e6f74206163746976650000006044820152606490fd5b6007915061226681610d22565b1415386121b3565b905061227981610d22565b6006811415906121ad565b90602090600060405161229681610427565b52604051630748d63560e31b81526001600160a01b039384166004820152602481019190915291829060449082907f0000000000000000000000000000000000000000000000000000000000000000165afa90811561136d576000916122fa575090565b610534915060203d8111611366576113588183610478565b949261239f610534986123a79493969861109e96610ce98a8a8d612337368a8c6104e2565b6020815191012090602081519101209060ff6040519360208501957fb3b3f3b703cd84ce352197dcff232b1b5d3cfb2025ce47cf04742d0651f1af8887526040860152166060840152608083015260a082015260a081526123978161045d565b519020612f74565b949094612de7565b92612429565b916105349391604051936123c085610427565b60008552612429565b93909260ff6123f59361053497958752166020860152604085015260a0606085015260a084019061073d565b91608081840391015261073d565b909260ff608093610534969584521660208301526040820152816060820152019061073d565b9291908360005260036020526040600020600161244586611a06565b61244e81610d22565b036125015761246a611a5761247092546001600160401b031690565b826129b7565b9461247d868484886126c7565b80516124c557506124bf7fb8e138887d0aa13bab447e82de9d5c1777041ecd21ca36ba824ff1e6c07ddda4938660405194859460018060a01b03169785612403565b0390a290565b6124bf907fe2babfbac5889a709b63bb7f598b324e08bc5a4fb9ec647fb3cbc9ec07eb8712948760405195869560018060a01b031698866123c9565b60405162461bcd60e51b815260206004820152602360248201527f476f7665726e6f723a20766f7465206e6f742063757272656e746c792061637460448201526269766560e81b6064820152608490fd5b1561255957565b60405162461bcd60e51b8152602060048201526018602482015277476f7665726e6f723a206f6e6c79476f7665726e616e636560401b6044820152606490fd5b6000526009602052604060002060036020526001600160401b03604060002054169060405191632394e7a360e21b835280600484015260208360248160018060a01b037f0000000000000000000000000000000000000000000000000000000000000000165afa92831561136d57600093612647575b5061261990612a8a565b91828102928184041490151715611861576126408160026001606494015491015490611cde565b9104111590565b6126199193506126649060203d8111611366576113588183610478565b929061260f565b1561267257565b60405162461bcd60e51b815260206004820152602760248201527f476f7665726e6f72566f74696e6753696d706c653a20766f746520616c726561604482015266191e4818d85cdd60ca1b6064820152608490fd5b916127436127366126e560ff94956000526009602052604060002090565b946003860161271f61271a61271661270f85859060018060a01b0316600052602052604060002090565b5460ff1690565b1590565b61266b565b9060018060a01b0316600052602052604060002090565b805460ff19166001179055565b168061275a575090612756908254611cde565b9055565b60018103612772575060016127569101918254611cde565b6002036127885760026127569101918254611cde565b60405162461bcd60e51b815260206004820152603560248201527f476f7665726e6f72566f74696e6753696d706c653a20696e76616c69642076616044820152746c756520666f7220656e756d20566f74655479706560581b6064820152608490fd5b6040513d6000823e3d90fd5b6040516324776b7d60e21b81526020816004817f00000000000000000000000000000000000000000000000000000000000000006001600160a01b03165afa8091600091612850575b5090610534575061053443613483565b6020813d821161288c575b8161286860209383610478565b8101031261288857519065ffffffffffff8216820361084c575038612840565b5080fd5b3d915061285b565b604051906128a1826103ec565b601d82527f6d6f64653d626c6f636b6e756d6265722666726f6d3d64656661756c740000006020830152565b604051634bf5d7e960e01b8152600080826004817f00000000000000000000000000000000000000000000000000000000000000006001600160a01b03165afa90918282612925575b50506105345750610534612894565b909192503d8082843e6129388184610478565b820191602081840312612888578051906001600160401b0382116129a4570182601f820112156128885780519161296e836104c7565b9361297c6040519586610478565b8385526020848401011161084c57509061299c916020808501910161071a565b903880612916565b8280fd5b90816020910312610366575190565b604051630748d63560e31b81526001600160a01b0391821660048201526024810192909252602090829060449082907f0000000000000000000000000000000000000000000000000000000000000000165afa90811561136d576000916122fa575090565b600b5460009080612a2f575050600a5490565b60001991818381011161186157600b905201600080516020613550833981519152015460201c90565b90604051604081018181106001600160401b0382111761040757604052602081935463ffffffff81168352811c910152565b600b80548015612bef576000198181018281116118615782111561209257600093838552612abf602092848488200101612a58565b9063ffffffff9181838251161115612bd85750612adb906134ea565b93858460058111612b94575b509394929392821691905b858410612b4a5750505050508015600014612b1557505b6001600160e01b031690565b612b459150612b26612b3e91611b68565b600b6000526000805160206135508339815191520190565b5460201c90565b612b09565b90919293948085169080861860011c820180921161186157828852848483898b2001541611600014612b825750945b93929190612af2565b959450612b8e90611cd0565b93612b79565b9094612b9f82613260565b82039182116118615782885284882082015484168785161015612bc757508290945b90612ae7565b9450612bd38391611cd0565b612bc1565b92909201516001600160e01b031695945050505050565b505050600a5490565b600b5490600160401b821015610407576001820180600b5582101561209257600b600052805160209182015190911b63ffffffff191663ffffffff919091161760008051602061355083398151915290910155565b90919015612c59575090565b815115612c695750805190602001fd5b60405162461bcd60e51b815260206004820152908190611b4190602483019061073d565b15612c9457565b60405162461bcd60e51b815260206004820152601b60248201527a436865636b706f696e743a2064656372656173696e67206b65797360281b6044820152606490fd5b600b549192918015612db357612d79918185612cff612cfa612b26602096611b68565b612a58565b92612d0e845163ffffffff1690565b612d2563ffffffff91828416928391161115612c8d565b612d3f612d36865163ffffffff1690565b63ffffffff1690565b03612d7d5750612d54612b26612d6b93611b68565b9063ffffffff82549181199060201b169116179055565b01516001600160e01b031690565b9190565b9050612dae9150612d9b612d8f610499565b63ffffffff9092168252565b6001600160e01b03871681850152612bf8565b612d6b565b50612dd790612dc3612d8f610499565b6001600160e01b0384166020820152612bf8565b60009190565b60051115610bcc57565b612df081612ddd565b80612df85750565b612e0181612ddd565b60018103612e495760405162461bcd60e51b815260206004820152601860248201527745434453413a20696e76616c6964207369676e617475726560401b6044820152606490fd5b612e5281612ddd565b60028103612e9f5760405162461bcd60e51b815260206004820152601f60248201527f45434453413a20696e76616c6964207369676e6174757265206c656e677468006044820152606490fd5b80612eab600392612ddd565b14612eb257565b60405162461bcd60e51b815260206004820152602260248201527f45434453413a20696e76616c6964207369676e6174757265202773272076616c604482015261756560f01b6064820152608490fd5b9291906fa2a8918ca85bafe22016d0b997e4df60600160ff1b038311612f685791608094939160ff602094604051948552168484015260408301526060820152600093849182805260015afa1561136d5781516001600160a01b03811615611aef579190565b50505050600090600390565b604290612f7f612f9a565b906040519161190160f01b8352600283015260228201522090565b307f00000000000000000000000000000000000000000000000000000000000000006001600160a01b03161480613085575b15612ff5577f000000000000000000000000000000000000000000000000000000000000000090565b60405160208101907f8b73c3c69bb8fe3d512ecc4cf759cc79239f7b179b0ffacaa9a75d522b39400f82527f000000000000000000000000000000000000000000000000000000000000000060408201527f000000000000000000000000000000000000000000000000000000000000000060608201524660808201523060a082015260a08152611a008161045d565b507f00000000000000000000000000000000000000000000000000000000000000004614612fcc565b60ff81146130ec5760ff811690601f82116130da57604051916130d0836103ec565b8252602082015290565b604051632cd44ac360e21b8152600490fd5b506040516000818154916130ff836118cf565b8083526001938085169081156131835750600114613125575b5061053492500382610478565b60008080527f290decd9548b62a8d60345a988386fc84ba6bc95484008f6362f93160ef3e56394602093509091905b81831061316b575050610534935082010138613118565b85548784018501529485019486945091830191613154565b905061053494506020925060ff191682840152151560051b82010138613118565b60ff81146131c65760ff811690601f82116130da57604051916130d0836103ec565b5060405160008160019182546131db816118cf565b8084529084811690811561318357506001146131fe575061053492500382610478565b9280915060005260209081600020936000915b818310613228575050610534935082010138613118565b85548784018501529485019486945091830191613211565b811561324a570490565b634e487b7160e01b600052601260045260246000fd5b801561339a578061333361332c61332261331861330e6133046132fa6132f060016105349a6000908b60801c8061338e575b508060401c80613381575b508060201c80613374575b508060101c80613367575b508060081c8061335a575b508060041c8061334d575b508060021c80613340575b50821c613339575b811c1b6132e9818b613240565b0160011c90565b6132e9818a613240565b6132e98189613240565b6132e98188613240565b6132e98187613240565b6132e98186613240565b6132e98185613240565b8092613240565b906133a0565b81016132dc565b60029150910190386132d4565b60049150910190386132c9565b60089150910190386132be565b60109150910190386132b3565b60209150910190386132a8565b604091509101903861329d565b91505060809038613292565b50600090565b90808210156133ad575090565b905090565b6001600160e01b03908181116133c6571690565b60405162461bcd60e51b815260206004820152602760248201527f53616665436173743a2076616c756520646f65736e27742066697420696e20326044820152663234206269747360c81b6064820152608490fd5b6001600160401b039081811161342f571690565b60405162461bcd60e51b815260206004820152602660248201527f53616665436173743a2076616c756520646f65736e27742066697420696e203660448201526534206269747360d01b6064820152608490fd5b65ffffffffffff90818111613496571690565b60405162461bcd60e51b815260206004820152602660248201527f53616665436173743a2076616c756520646f65736e27742066697420696e203460448201526538206269747360d01b6064820152608490fd5b63ffffffff908181116134fb571690565b60405162461bcd60e51b815260206004820152602660248201527f53616665436173743a2076616c756520646f65736e27742066697420696e203360448201526532206269747360d01b6064820152608490fdfe0175b7a638427703f0dbe7bb9bbf987a2551717b34e79f33b5b1008d1fa01db9a26469706673582212208d93087011a630598de3d49b201ba8bfb56cde17469d9d76e91eea12630ceb9b64736f6c634300081300330553476bf02ef2726e8ce5ced78d63e26e602e4a2257b1f559418e24b4633997",
  "devdoc": {
    "errors": {
      "Empty()": [
        {
          "details": "An operation (e.g. {front}) couldn't be completed due to the queue being empty."
        }
      ]
    },
    "events": {
      "EIP712DomainChanged()": {
        "details": "MAY be emitted to signal that the domain could have changed."
      },
      "ProposalCanceled(uint256)": {
        "details": "Emitted when a proposal is canceled."
      },
      "ProposalCreated(uint256,address,address[],uint256[],string[],bytes[],uint256,uint256,string)": {
        "details": "Emitted when a proposal is created."
      },
      "ProposalExecuted(uint256)": {
        "details": "Emitted when a proposal is executed."
      },
      "VoteCast(address,uint256,uint8,uint256,string)": {
        "details": "Emitted when a vote is cast without params. Note: `support` values should be seen as buckets. Their interpretation depends on the voting module used."
      },
      "VoteCastWithParams(address,uint256,uint8,uint256,string,bytes)": {
        "details": "Emitted when a vote is cast with params. Note: `support` values should be seen as buckets. Their interpretation depends on the voting module used. `params` are additional encoded parameters. Their interpepretation also depends on the voting module used."
      }
    },
    "kind": "dev",
    "methods": {
      "CLOCK_MODE()": {
        "details": "Machine-readable description of the clock as specified in EIP-6372."
      },
      "COUNTING_MODE()": {
        "details": "See {IGovernor-COUNTING_MODE}."
      },
      "cancel(address[],uint256[],bytes[],bytes32)": {
        "details": "See {IGovernor-cancel}."
      },
      "castVote(uint256,uint8)": {
        "details": "See {IGovernor-castVote}."
      },
      "castVoteBySig(uint256,uint8,uint8,bytes32,bytes32)": {
        "details": "See {IGovernor-castVoteBySig}."
      },
      "castVoteWithReason(uint256,uint8,string)": {
        "details": "See {IGovernor-castVoteWithReason}."
      },
      "castVoteWithReasonAndParams(uint256,uint8,string,bytes)": {
        "details": "See {IGovernor-castVoteWithReasonAndParams}."
      },
      "castVoteWithReasonAndParamsBySig(uint256,uint8,string,bytes,uint8,bytes32,bytes32)": {
        "details": "See {IGovernor-castVoteWithReasonAndParamsBySig}."
      },
      "clock()": {
        "details": "Clock (as specified in EIP-6372) is set to match the token's clock. Fallback to block numbers if the token does not implement EIP-6372."
      },
      "eip712Domain()": {
        "details": "See {EIP-5267}. _Available since v4.9._"
      },
      "execute(address[],uint256[],bytes[],bytes32)": {
        "details": "See {IGovernor-execute}."
      },
      "getVotes(address,uint256)": {
        "details": "See {IGovernor-getVotes}."
      },
      "getVotesWithParams(address,uint256,bytes)": {
        "details": "See {IGovernor-getVotesWithParams}."
      },
      "hasVoted(uint256,address)": {
        "details": "See {IGovernor-hasVoted}."
      },
      "hashProposal(address[],uint256[],bytes[],bytes32)": {
        "details": "See {IGovernor-hashProposal}. The proposal id is produced by hashing the ABI encoded `targets` array, the `values` array, the `calldatas` array and the descriptionHash (bytes32 which itself is the keccak256 hash of the description string). This proposal id can be produced from the proposal data which is part of the {ProposalCreated} event. It can even be computed in advance, before the proposal is submitted. Note that the chainId and the governor address are not part of the proposal id computation. Consequently, the same proposal (with same operation and same description) will have the same id if submitted on multiple governors across multiple networks. This also means that in order to execute the same operation twice (on the same governor) the proposer will have to change the description in order to avoid proposal id conflicts."
      },
      "name()": {
        "details": "See {IGovernor-name}."
      },
      "onERC1155BatchReceived(address,address,uint256[],uint256[],bytes)": {
        "details": "See {IERC1155Receiver-onERC1155BatchReceived}."
      },
      "onERC1155Received(address,address,uint256,uint256,bytes)": {
        "details": "See {IERC1155Receiver-onERC1155Received}."
      },
      "onERC721Received(address,address,uint256,bytes)": {
        "details": "See {IERC721Receiver-onERC721Received}."
      },
      "proposalDeadline(uint256)": {
        "details": "See {IGovernor-proposalDeadline}."
      },
      "proposalProposer(uint256)": {
        "details": "Returns the account that created a given proposal."
      },
      "proposalSnapshot(uint256)": {
        "details": "See {IGovernor-proposalSnapshot}."
      },
      "proposalVotes(uint256)": {
        "details": "Accessor to the internal vote counts."
      },
      "propose(address[],uint256[],bytes[],string)": {
        "details": "See {IGovernor-propose}."
      },
      "quorumDenominator()": {
        "details": "Returns the quorum denominator. Defaults to 100, but may be overridden."
      },
      "quorumNumerator()": {
        "details": "Returns the current quorum numerator. See {quorumDenominator}."
      },
      "quorumNumerator(uint256)": {
        "details": "Returns the quorum numerator at a specific timepoint. See {quorumDenominator}."
      },
      "relay(address,uint256,bytes)": {
        "details": "Relays a transaction or function call to an arbitrary target. In cases where the governance executor is some contract other than the governor itself, like when using a timelock, this function can be invoked in a governance proposal to recover tokens or Ether that was sent to the governor contract by mistake. Note that if the executor is simply the governor itself, use of `relay` is redundant."
      },
      "setProposalThreshold(uint256)": {
        "details": "Update the proposal threshold. This operation can only be performed through a governance proposal. Emits a {ProposalThresholdSet} event."
      },
      "setVotingDelay(uint256)": {
        "details": "Update the voting delay. This operation can only be performed through a governance proposal. Emits a {VotingDelaySet} event."
      },
      "setVotingPeriod(uint256)": {
        "details": "Update the voting period. This operation can only be performed through a governance proposal. Emits a {VotingPeriodSet} event."
      },
      "state(uint256)": {
        "details": "See {IGovernor-state}."
      },
      "supportsInterface(bytes4)": {
        "details": "See {IERC165-supportsInterface}."
      },
      "updateQuorumNumerator(uint256)": {
        "details": "Changes the quorum numerator. Emits a {QuorumNumeratorUpdated} event. Requirements: - Must be called through a governance proposal. - New numerator must be smaller or equal to the denominator."
      },
      "version()": {
        "details": "See {IGovernor-version}."
      }
    },
    "version": 1
  },
  "userdoc": {
    "kind": "user",
    "methods": {},
    "version": 1
  },
  "storageLayout": {
    "storage": [
      {
        "astId": 9995,
        "contract": "contracts/FueliDAO.sol:FueliDAO",
        "label": "_nameFallback",
        "offset": 0,
        "slot": "0",
        "type": "t_string_storage"
      },
      {
        "astId": 9997,
        "contract": "contracts/FueliDAO.sol:FueliDAO",
        "label": "_versionFallback",
        "offset": 0,
        "slot": "1",
        "type": "t_string_storage"
      },
      {
        "astId": 444,
        "contract": "contracts/FueliDAO.sol:FueliDAO",
        "label": "_name",
        "offset": 0,
        "slot": "2",
        "type": "t_string_storage"
      },
      {
        "astId": 450,
        "contract": "contracts/FueliDAO.sol:FueliDAO",
        "label": "_proposals",
        "offset": 0,
        "slot": "3",
        "type": "t_mapping(t_uint256,t_struct(ProposalCore)442_storage)"
      },
      {
        "astId": 453,
        "contract": "contracts/FueliDAO.sol:FueliDAO",
        "label": "_governanceCall",
        "offset": 0,
        "slot": "4",
        "type": "t_struct(Bytes32Deque)12733_storage"
      },
      {
        "astId": 2373,
        "contract": "contracts/FueliDAO.sol:FueliDAO",
        "label": "_votingDelay",
        "offset": 0,
        "slot": "6",
        "type": "t_uint256"
      },
      {
        "astId": 2375,
        "contract": "contracts/FueliDAO.sol:FueliDAO",
        "label": "_votingPeriod",
        "offset": 0,
        "slot": "7",
        "type": "t_uint256"
      },
      {
        "astId": 2377,
        "contract": "contracts/FueliDAO.sol:FueliDAO",
        "label": "_proposalThreshold",
        "offset": 0,
        "slot": "8",
        "type": "t_uint256"
      },
      {
        "astId": 2165,
        "contract": "contracts/FueliDAO.sol:FueliDAO",
        "label": "_proposalVotes",
        "offset": 0,
        "slot": "9",
        "type": "t_mapping(t_uint256,t_struct(ProposalVote)2160_storage)"
      },
      {
        "astId": 2654,
        "contract": "contracts/FueliDAO.sol:FueliDAO",
        "label": "_quorumNumerator",
        "offset": 0,
        "slot": "10",
        "type": "t_uint256"
      },
      {
        "astId": 2658,
        "contract": "contracts/FueliDAO.sol:FueliDAO",
        "label": "_quorumNumeratorHistory",
        "offset": 0,
        "slot": "11",
        "type": "t_struct(Trace224)7945_storage"
      }
    ],
    "types": {
      "t_address": {
        "encoding": "inplace",
        "label": "address",
        "numberOfBytes": "20"
      },
      "t_array(t_struct(Checkpoint224)7950_storage)dyn_storage": {
        "base": "t_struct(Checkpoint224)7950_storage",
        "encoding": "dynamic_array",
        "label": "struct Checkpoints.Checkpoint224[]",
        "numberOfBytes": "32"
      },
      "t_bool": {
        "encoding": "inplace",
        "label": "bool",
        "numberOfBytes": "1"
      },
      "t_bytes24": {
        "encoding": "inplace",
        "label": "bytes24",
        "numberOfBytes": "24"
      },
      "t_bytes32": {
        "encoding": "inplace",
        "label": "bytes32",
        "numberOfBytes": "32"
      },
      "t_bytes4": {
        "encoding": "inplace",
        "label": "bytes4",
        "numberOfBytes": "4"
      },
      "t_int128": {
        "encoding": "inplace",
        "label": "int128",
        "numberOfBytes": "16"
      },
      "t_mapping(t_address,t_bool)": {
        "encoding": "mapping",
        "key": "t_address",
        "label": "mapping(address => bool)",
        "numberOfBytes": "32",
        "value": "t_bool"
      },
      "t_mapping(t_int128,t_bytes32)": {
        "encoding": "mapping",
        "key": "t_int128",
        "label": "mapping(int128 => bytes32)",
        "numberOfBytes": "32",
        "value": "t_bytes32"
      },
      "t_mapping(t_uint256,t_struct(ProposalCore)442_storage)": {
        "encoding": "mapping",
        "key": "t_uint256",
        "label": "mapping(uint256 => struct Governor.ProposalCore)",
        "numberOfBytes": "32",
        "value": "t_struct(ProposalCore)442_storage"
      },
      "t_mapping(t_uint256,t_struct(ProposalVote)2160_storage)": {
        "encoding": "mapping",
        "key": "t_uint256",
        "label": "mapping(uint256 => struct GovernorCountingSimple.ProposalVote)",
        "numberOfBytes": "32",
        "value": "t_struct(ProposalVote)2160_storage"
      },
      "t_string_storage": {
        "encoding": "bytes",
        "label": "string",
        "numberOfBytes": "32"
      },
      "t_struct(Bytes32Deque)12733_storage": {
        "encoding": "inplace",
        "label": "struct DoubleEndedQueue.Bytes32Deque",
        "members": [
          {
            "astId": 12726,
            "contract": "contracts/FueliDAO.sol:FueliDAO",
            "label": "_begin",
            "offset": 0,
            "slot": "0",
            "type": "t_int128"
          },
          {
            "astId": 12728,
            "contract": "contracts/FueliDAO.sol:FueliDAO",
            "label": "_end",
            "offset": 16,
            "slot": "0",
            "type": "t_int128"
          },
          {
            "astId": 12732,
            "contract": "contracts/FueliDAO.sol:FueliDAO",
            "label": "_data",
            "offset": 0,
            "slot": "1",
            "type": "t_mapping(t_int128,t_bytes32)"
          }
        ],
        "numberOfBytes": "64"
      },
      "t_struct(Checkpoint224)7950_storage": {
        "encoding": "inplace",
        "label": "struct Checkpoints.Checkpoint224",
        "members": [
          {
            "astId": 7947,
            "contract": "contracts/FueliDAO.sol:FueliDAO",
            "label": "_key",
            "offset": 0,
            "slot": "0",
            "type": "t_uint32"
          },
          {
            "astId": 7949,
            "contract": "contracts/FueliDAO.sol:FueliDAO",
            "label": "_value",
            "offset": 4,
            "slot": "0",
            "type": "t_uint224"
          }
        ],
        "numberOfBytes": "32"
      },
      "t_struct(ProposalCore)442_storage": {
        "encoding": "inplace",
        "label": "struct Governor.ProposalCore",
        "members": [
          {
            "astId": 429,
            "contract": "contracts/FueliDAO.sol:FueliDAO",
            "label": "voteStart",
            "offset": 0,
            "slot": "0",
            "type": "t_uint64"
          },
          {
            "astId": 431,
            "contract": "contracts/FueliDAO.sol:FueliDAO",
            "label": "proposer",
            "offset": 8,
            "slot": "0",
            "type": "t_address"
          },
          {
            "astId": 433,
            "contract": "contracts/FueliDAO.sol:FueliDAO",
            "label": "__gap_unused0",
            "offset": 28,
            "slot": "0",
            "type": "t_bytes4"
          },
          {
            "astId": 435,
            "contract": "contracts/FueliDAO.sol:FueliDAO",
            "label": "voteEnd",
            "offset": 0,
            "slot": "1",
            "type": "t_uint64"
          },
          {
            "astId": 437,
            "contract": "contracts/FueliDAO.sol:FueliDAO",
            "label": "__gap_unused1",
            "offset": 8,
            "slot": "1",
            "type": "t_bytes24"
          },
          {
            "astId": 439,
            "contract": "contracts/FueliDAO.sol:FueliDAO",
            "label": "executed",
            "offset": 0,
            "slot": "2",
            "type": "t_bool"
          },
          {
            "astId": 441,
            "contract": "contracts/FueliDAO.sol:FueliDAO",
            "label": "canceled",
            "offset": 1,
            "slot": "2",
            "type": "t_bool"
          }
        ],
        "numberOfBytes": "96"
      },
      "t_struct(ProposalVote)2160_storage": {
        "encoding": "inplace",
        "label": "struct GovernorCountingSimple.ProposalVote",
        "members": [
          {
            "astId": 2151,
            "contract": "contracts/FueliDAO.sol:FueliDAO",
            "label": "againstVotes",
            "offset": 0,
            "slot": "0",
            "type": "t_uint256"
          },
          {
            "astId": 2153,
            "contract": "contracts/FueliDAO.sol:FueliDAO",
            "label": "forVotes",
            "offset": 0,
            "slot": "1",
            "type": "t_uint256"
          },
          {
            "astId": 2155,
            "contract": "contracts/FueliDAO.sol:FueliDAO",
            "label": "abstainVotes",
            "offset": 0,
            "slot": "2",
            "type": "t_uint256"
          },
          {
            "astId": 2159,
            "contract": "contracts/FueliDAO.sol:FueliDAO",
            "label": "hasVoted",
            "offset": 0,
            "slot": "3",
            "type": "t_mapping(t_address,t_bool)"
          }
        ],
        "numberOfBytes": "128"
      },
      "t_struct(Trace224)7945_storage": {
        "encoding": "inplace",
        "label": "struct Checkpoints.Trace224",
        "members": [
          {
            "astId": 7944,
            "contract": "contracts/FueliDAO.sol:FueliDAO",
            "label": "_checkpoints",
            "offset": 0,
            "slot": "0",
            "type": "t_array(t_struct(Checkpoint224)7950_storage)dyn_storage"
          }
        ],
        "numberOfBytes": "32"
      },
      "t_uint224": {
        "encoding": "inplace",
        "label": "uint224",
        "numberOfBytes": "28"
      },
      "t_uint256": {
        "encoding": "inplace",
        "label": "uint256",
        "numberOfBytes": "32"
      },
      "t_uint32": {
        "encoding": "inplace",
        "label": "uint32",
        "numberOfBytes": "4"
      },
      "t_uint64": {
        "encoding": "inplace",
        "label": "uint64",
        "numberOfBytes": "8"
      }
    }
  }
}