{
  "address": "0xFad1B93D95a980D883631f816Ae5111D4737f46F",
  "abi": [
    {
      "inputs": [
        {
          "internalType": "contract IFueli",
          "name": "_fueli",
          "type": "address"
        },
        {
          "internalType": "contract IPicli",
          "name": "_picli",
          "type": "address"
        },
        {
          "internalType": "address",
          "name": "_treasury",
          "type": "address"
        }
      ],
      "stateMutability": "nonpayable",
      "type": "constructor"
    },
    {
      "anonymous": false,
      "inputs": [
        {
          "indexed": true,
          "internalType": "address",
          "name": "minter",
          "type": "address"
        },
        {
          "indexed": false,
          "internalType": "uint256",
          "name": "tokenId",
          "type": "uint256"
        },
        {
          "indexed": false,
          "internalType": "string",
          "name": "prompt",
          "type": "string"
        },
        {
          "indexed": false,
          "internalType": "string",
          "name": "message",
          "type": "string"
        },
        {
          "indexed": false,
          "internalType": "uint256",
          "name": "value",
          "type": "uint256"
        },
        {
          "indexed": true,
          "internalType": "bool",
          "name": "privacy",
          "type": "bool"
        }
      ],
      "name": "MintingRequest",
      "type": "event"
    },
    {
      "anonymous": false,
      "inputs": [
        {
          "indexed": true,
          "internalType": "bytes32",
          "name": "role",
          "type": "bytes32"
        },
        {
          "indexed": true,
          "internalType": "bytes32",
          "name": "previousAdminRole",
          "type": "bytes32"
        },
        {
          "indexed": true,
          "internalType": "bytes32",
          "name": "newAdminRole",
          "type": "bytes32"
        }
      ],
      "name": "RoleAdminChanged",
      "type": "event"
    },
    {
      "anonymous": false,
      "inputs": [
        {
          "indexed": true,
          "internalType": "bytes32",
          "name": "role",
          "type": "bytes32"
        },
        {
          "indexed": true,
          "internalType": "address",
          "name": "account",
          "type": "address"
        },
        {
          "indexed": true,
          "internalType": "address",
          "name": "sender",
          "type": "address"
        }
      ],
      "name": "RoleGranted",
      "type": "event"
    },
    {
      "anonymous": false,
      "inputs": [
        {
          "indexed": true,
          "internalType": "bytes32",
          "name": "role",
          "type": "bytes32"
        },
        {
          "indexed": true,
          "internalType": "address",
          "name": "account",
          "type": "address"
        },
        {
          "indexed": true,
          "internalType": "address",
          "name": "sender",
          "type": "address"
        }
      ],
      "name": "RoleRevoked",
      "type": "event"
    },
    {
      "inputs": [],
      "name": "COST_PER_MESSAGE_BYTE",
      "outputs": [
        {
          "internalType": "uint256",
          "name": "",
          "type": "uint256"
        }
      ],
      "stateMutability": "view",
      "type": "function"
    },
    {
      "inputs": [],
      "name": "COST_PER_MINT",
      "outputs": [
        {
          "internalType": "uint256",
          "name": "",
          "type": "uint256"
        }
      ],
      "stateMutability": "view",
      "type": "function"
    },
    {
      "inputs": [],
      "name": "COST_PER_PROMPT_BYTE",
      "outputs": [
        {
          "internalType": "uint256",
          "name": "",
          "type": "uint256"
        }
      ],
      "stateMutability": "view",
      "type": "function"
    },
    {
      "inputs": [],
      "name": "DEFAULT_ADMIN_ROLE",
      "outputs": [
        {
          "internalType": "bytes32",
          "name": "",
          "type": "bytes32"
        }
      ],
      "stateMutability": "view",
      "type": "function"
    },
    {
      "inputs": [],
      "name": "INJECTOR_ROLE",
      "outputs": [
        {
          "internalType": "bytes32",
          "name": "",
          "type": "bytes32"
        }
      ],
      "stateMutability": "view",
      "type": "function"
    },
    {
      "inputs": [],
      "name": "fueli",
      "outputs": [
        {
          "internalType": "contract IFueli",
          "name": "",
          "type": "address"
        }
      ],
      "stateMutability": "view",
      "type": "function"
    },
    {
      "inputs": [
        {
          "internalType": "bytes32",
          "name": "role",
          "type": "bytes32"
        }
      ],
      "name": "getRoleAdmin",
      "outputs": [
        {
          "internalType": "bytes32",
          "name": "",
          "type": "bytes32"
        }
      ],
      "stateMutability": "view",
      "type": "function"
    },
    {
      "inputs": [
        {
          "internalType": "bytes32",
          "name": "role",
          "type": "bytes32"
        },
        {
          "internalType": "address",
          "name": "account",
          "type": "address"
        }
      ],
      "name": "grantRole",
      "outputs": [],
      "stateMutability": "nonpayable",
      "type": "function"
    },
    {
      "inputs": [
        {
          "internalType": "bytes32",
          "name": "role",
          "type": "bytes32"
        },
        {
          "internalType": "address",
          "name": "account",
          "type": "address"
        }
      ],
      "name": "hasRole",
      "outputs": [
        {
          "internalType": "bool",
          "name": "",
          "type": "bool"
        }
      ],
      "stateMutability": "view",
      "type": "function"
    },
    {
      "inputs": [
        {
          "internalType": "uint256",
          "name": "tokenId",
          "type": "uint256"
        },
        {
          "internalType": "string",
          "name": "image",
          "type": "string"
        },
        {
          "internalType": "string",
          "name": "videoId",
          "type": "string"
        }
      ],
      "name": "inject",
      "outputs": [],
      "stateMutability": "nonpayable",
      "type": "function"
    },
    {
      "inputs": [
        {
          "internalType": "string",
          "name": "prompt",
          "type": "string"
        },
        {
          "internalType": "string",
          "name": "message",
          "type": "string"
        },
        {
          "internalType": "bool",
          "name": "privacy",
          "type": "bool"
        }
      ],
      "name": "mint",
      "outputs": [],
      "stateMutability": "payable",
      "type": "function"
    },
    {
      "inputs": [],
      "name": "picli",
      "outputs": [
        {
          "internalType": "contract IPicli",
          "name": "",
          "type": "address"
        }
      ],
      "stateMutability": "view",
      "type": "function"
    },
    {
      "inputs": [
        {
          "internalType": "bytes32",
          "name": "role",
          "type": "bytes32"
        },
        {
          "internalType": "address",
          "name": "account",
          "type": "address"
        }
      ],
      "name": "renounceRole",
      "outputs": [],
      "stateMutability": "nonpayable",
      "type": "function"
    },
    {
      "inputs": [
        {
          "internalType": "bytes32",
          "name": "role",
          "type": "bytes32"
        },
        {
          "internalType": "address",
          "name": "account",
          "type": "address"
        }
      ],
      "name": "revokeRole",
      "outputs": [],
      "stateMutability": "nonpayable",
      "type": "function"
    },
    {
      "inputs": [
        {
          "internalType": "bytes4",
          "name": "interfaceId",
          "type": "bytes4"
        }
      ],
      "name": "supportsInterface",
      "outputs": [
        {
          "internalType": "bool",
          "name": "",
          "type": "bool"
        }
      ],
      "stateMutability": "view",
      "type": "function"
    },
    {
      "inputs": [],
      "name": "treasury",
      "outputs": [
        {
          "internalType": "address",
          "name": "",
          "type": "address"
        }
      ],
      "stateMutability": "view",
      "type": "function"
    }
  ],
  "transactionHash": "0xf7e89934925f2a1684d608a503ba78b8396108a467323b8784fb763256c1399b",
  "args": [
    "0xe5CF7D6eF5eF210b77a66b1E622a8a632FAb8542",
    "0xe6176a8F8b5166E2Eb91d7dCA7E88C7C71B0B2e9",
    "0xa29e5ded13101DC47A2401Dad9B474b8e4150379"
  ],
  "numDeployments": 1,
  "solcInputHash": "230393e13f39ab1a462269cb13745ef3",
  "bytecode": "0x60803461017257601f61116d38819003918201601f191683019291906001600160401b038411838510176101775781606092849260409687528339810103126101725780516001600160a01b039182821691829003610172576020808201519184831680930361017257850151938416809403610172576000808052808252858120338252825260ff86822054161561013c575b7fa0b8bef85fcf39fcf38553f1845a1aff0453bf1e225f80cc00ec3e5cff9e656491828252818152868220338352815260ff878320541615610103575b50505060018060a01b031991826001541617600155816002541617600255600354161760035551610fbf908161018e8239f35b8282528181528682209033835252858120600160ff19825416179055339160008051602061114d833981519152339280a43880806100d0565b8080528082528581203382528252858120600160ff1982541617905533338260008051602061114d8339815191528180a4610093565b600080fd5b634e487b7160e01b600052604160045260246000fdfe608060408181526004918236101561001657600080fd5b600092833560e01c91826301ffc9a7146109a657508163248a9ca31461097c5781632f2ff15d146108de57816336568abe1461085657816361d027b31461082d57816391d14854146107f3578163a217fddf146107d8578163b5fcb4611461079d578163b92b8c1614610774578163c1d885b114610479578163c606fb4014610456578163cbb265fb14610434578163d547741f14610400578163d675cb421461012257508063e017cd1d146101005763e2f01958146100d557600080fd5b346100fc57816003193601126100fc5760015490516001600160a01b039091168152602090f35b5080fd5b50346100fc57816003193601126100fc5760209051670de0b6b3a76400008152f35b8383346100fc57600319906060368301126103fc576024936001600160401b039285358481116103f8576101599036908401610a89565b936044359081116103f8576101719036908401610a89565b907fa0b8bef85fcf39fcf38553f1845a1aff0453bf1e225f80cc00ec3e5cff9e65649687600052602097600089528560002033600052895260ff86600020541615610245575060025496975087966001600160a01b031691823b1561024157879461021286926060966102038a519b8c998a988997636b3ae5a160e11b89528035908901528701526064860190610ca3565b91848303016044850152610ca3565b03925af190811561023857506102255750f35b61022e90610a24565b6102355780f35b80fd5b513d84823e3d90fd5b8780fd5b889186869261025333610d63565b90825161025f81610a4d565b604281528681019160603684378151156103e4576030835381516001908110156103d057607860218401536041905b8082116103655750506103375760486103339593859361031b9361030c975197889376020b1b1b2b9b9a1b7b73a3937b61d1030b1b1b7bab73a1604d1b8d8601526102e38d8251928391603789019101610c80565b8401917001034b99036b4b9b9b4b733903937b6329607d1b603784015251809386840190610c80565b01036028810186520184610a68565b5194859462461bcd60e51b8652850152830190610ca3565b0390fd5b60648688878188519362461bcd60e51b8552840152820152600080516020610f6a8339815191526044820152fd5b9091600f811660108110156103bc576f181899199a1a9b1b9c1cb0b131b232b360811b901a6103948486610d3c565b53881c9180156103a857600019019061028e565b8760118a634e487b7160e01b600052526000fd5b8860328b634e487b7160e01b600052526000fd5b86603289634e487b7160e01b600052526000fd5b85603288634e487b7160e01b600052526000fd5b8580fd5b8280fd5b5050346100fc5760016104319161042c610419366109f9565b9390928387528660205286200154610adf565b610cc8565b80f35b5050346100fc57816003193601126100fc5760209051662386f26fc100008152f35b5050346100fc57816003193601126100fc576020905167016345785d8a00008152f35b83836003196060368201126103fc576001600160401b03938035858111610770576104a79036908301610a89565b60249586359081116103f8576104c09036908401610a89565b906044359283151580940361076c576104d882610e5f565b67016345785d8a000090818102918183041490151715610748576104fb84610e5f565b662386f26fc100009081810291818304149015171561075a57810180911161074857670de0b6b3a764000081018091116107485734106106fb57908692918389602061058860018060a01b03998a60025416908c51998a80948193630552362560e51b8352338b84015260a08984015261057860a484018d610ca3565b908382030160448401528c610ca3565b3460648301528d608483015203925af19586156106f15782966106be575b50876001541692833b156103fc57604490838b5195869485936340c10f1960e01b8552339085015234908401525af180156106b457610671575b50938694938594937f831b067e0968c2a8ab8667fedbd8926eb93dd9aa6266852abc836ee3a7a6537a61063787969561062a88978c51958652608060208701526080860190610ca3565b908482038c860152610ca3565b913460608201528033930390a36003541681903415610667575b3491f11561065d575080f35b51903d90823e3d90fd5b6108fc9150610651565b9361062a937f831b067e0968c2a8ab8667fedbd8926eb93dd9aa6266852abc836ee3a7a6537a986106a761063798949597610a24565b98509350939190946105e0565b87513d8a823e3d90fd5b9095506020813d82116106e9575b816106d960209383610a68565b810103126100fc5751948a6105a6565b3d91506106cc565b89513d84823e3d90fd5b608490602289602089519362461bcd60e51b85528401528201527f4e6f7420656e6f7567682066756e6473206465706f736974656420746f206d696044820152611b9d60f21b6064820152fd5b634e487b7160e01b8852601182528888fd5b634e487b7160e01b8952601183528989fd5b8680fd5b8480fd5b5050346100fc57816003193601126100fc5760025490516001600160a01b039091168152602090f35b5050346100fc57816003193601126100fc57602090517fa0b8bef85fcf39fcf38553f1845a1aff0453bf1e225f80cc00ec3e5cff9e65648152f35b5050346100fc57816003193601126100fc5751908152602090f35b5050346100fc5760ff81602093610809366109f9565b9082528186528282206001600160a01b039091168252855220549151911615158152f35b5050346100fc57816003193601126100fc5760035490516001600160a01b039091168152602090f35b839150346100fc57610867366109f9565b91336001600160a01b0384160361088357509061043191610cc8565b608490602086519162461bcd60e51b8352820152602f60248201527f416363657373436f6e74726f6c3a2063616e206f6e6c792072656e6f756e636560448201526e103937b632b9903337b91039b2b63360891b6064820152fd5b5050346100fc576108ee366109f9565b90918284528360205261090660018286200154610adf565b82845260208481528185206001600160a01b039093168086529290528084205460ff1615610932578380f35b828452836020528084208285526020528320600160ff1982541617905533917f2f8788117e7eff1d82e926ec794901d17c78024a50270940304540a733656f0d8480a43880808380f35b9050346103fc5760203660031901126103fc57816020936001923581528085522001549051908152f35b8491346103fc5760203660031901126103fc573563ffffffff60e01b81168091036103fc5760209250637965db0b60e01b81149081156109e8575b5015158152f35b6301ffc9a760e01b149050836109e1565b6040906003190112610a1f57600435906024356001600160a01b0381168103610a1f5790565b600080fd5b6001600160401b038111610a3757604052565b634e487b7160e01b600052604160045260246000fd5b608081019081106001600160401b03821117610a3757604052565b90601f801991011681019081106001600160401b03821117610a3757604052565b81601f82011215610a1f578035906001600160401b038211610a375760405192610abd601f8401601f191660200185610a68565b82845260208383010111610a1f57816000926020809301838601378301015290565b600090808252602090828252604092838120338252835260ff848220541615610b085750505050565b610b1133610d63565b91845190610b1e82610a4d565b60428252848201926060368537825115610c6c5760308453825190600191821015610c6c5790607860218501536041915b818311610bfe57505050610bce576048610333938693610bb293610ba3985198899376020b1b1b2b9b9a1b7b73a3937b61d1030b1b1b7bab73a1604d1b8a8601526102e3815180928c603789019101610c80565b01036028810187520185610a68565b5192839262461bcd60e51b845260048401526024830190610ca3565b60648486519062461bcd60e51b82528060048301526024820152600080516020610f6a8339815191526044820152fd5b909192600f81166010811015610c58576f181899199a1a9b1b9c1cb0b131b232b360811b901a610c2e8587610d3c565b5360041c928015610c4457600019019190610b4f565b634e487b7160e01b82526011600452602482fd5b634e487b7160e01b83526032600452602483fd5b634e487b7160e01b81526032600452602490fd5b60005b838110610c935750506000910152565b8181015183820152602001610c83565b90602091610cbc81518092818552858086019101610c80565b601f01601f1916010190565b9060009180835282602052604083209160018060a01b03169182845260205260ff604084205416610cf857505050565b80835282602052604083208284526020526040832060ff1981541690557ff6391f5c32d9c69d2a47ea670b442974b53935d1edc7fd64eb21e047a839171b339380a4565b908151811015610d4d570160200190565b634e487b7160e01b600052603260045260246000fd5b60405190606082018281106001600160401b03821117610a3757604052602a8252602082016040368237825115610d4d57603090538151600190811015610d4d57607860218401536029905b808211610df1575050610dbf5790565b606460405162461bcd60e51b81526020600482015260206024820152600080516020610f6a8339815191526044820152fd5b9091600f81166010811015610e4a576f181899199a1a9b1b9c1cb0b131b232b360811b901a610e208486610d3c565b5360041c918015610e35576000190190610daf565b60246000634e487b7160e01b81526011600452fd5b60246000634e487b7160e01b81526032600452fd5b6000815191815b838110610e74575050905090565b6001600160f81b0319610e878284610d3c565b5116600160ff1b811015610ecb575060018101809111610eb557915b6000198114610eb55760010191610e66565b634e487b7160e01b600052601160045260246000fd5b600760fd1b811015610ee9575060028101809111610eb55791610ea3565b600f60fc1b811015610f07575060038101809111610eb55791610ea3565b601f60fb1b811015610f3c57506004808201809211610f27575091610ea3565b601190634e487b7160e01b6000525260246000fd5b603f60fa1b1115610f585760058101809111610eb55791610ea3565b60068101809111610eb55791610ea356fe537472696e67733a20686578206c656e67746820696e73756666696369656e74a2646970667358221220db4ad5977a41244bf3e45199228f50d4da5005ae40c98869e9d933d2fc13206a64736f6c634300081300332f8788117e7eff1d82e926ec794901d17c78024a50270940304540a733656f0d",
  "devdoc": {
    "custom:security-contact": "ceo@tookey.io",
    "events": {
      "RoleAdminChanged(bytes32,bytes32,bytes32)": {
        "details": "Emitted when `newAdminRole` is set as ``role``'s admin role, replacing `previousAdminRole` `DEFAULT_ADMIN_ROLE` is the starting admin for all roles, despite {RoleAdminChanged} not being emitted signaling this. _Available since v3.1._"
      },
      "RoleGranted(bytes32,address,address)": {
        "details": "Emitted when `account` is granted `role`. `sender` is the account that originated the contract call, an admin role bearer except when using {AccessControl-_setupRole}."
      },
      "RoleRevoked(bytes32,address,address)": {
        "details": "Emitted when `account` is revoked `role`. `sender` is the account that originated the contract call:   - if using `revokeRole`, it is the admin role bearer   - if using `renounceRole`, it is the role bearer (i.e. `account`)"
      }
    },
    "kind": "dev",
    "methods": {
      "getRoleAdmin(bytes32)": {
        "details": "Returns the admin role that controls `role`. See {grantRole} and {revokeRole}. To change a role's admin, use {_setRoleAdmin}."
      },
      "grantRole(bytes32,address)": {
        "details": "Grants `role` to `account`. If `account` had not been already granted `role`, emits a {RoleGranted} event. Requirements: - the caller must have ``role``'s admin role. May emit a {RoleGranted} event."
      },
      "hasRole(bytes32,address)": {
        "details": "Returns `true` if `account` has been granted `role`."
      },
      "renounceRole(bytes32,address)": {
        "details": "Revokes `role` from the calling account. Roles are often managed via {grantRole} and {revokeRole}: this function's purpose is to provide a mechanism for accounts to lose their privileges if they are compromised (such as when a trusted device is misplaced). If the calling account had been revoked `role`, emits a {RoleRevoked} event. Requirements: - the caller must be `account`. May emit a {RoleRevoked} event."
      },
      "revokeRole(bytes32,address)": {
        "details": "Revokes `role` from `account`. If `account` had been granted `role`, emits a {RoleRevoked} event. Requirements: - the caller must have ``role``'s admin role. May emit a {RoleRevoked} event."
      },
      "supportsInterface(bytes4)": {
        "details": "See {IERC165-supportsInterface}."
      }
    },
    "version": 1
  },
  "userdoc": {
    "kind": "user",
    "methods": {},
    "version": 1
  },
  "storageLayout": {
    "storage": [
      {
        "astId": 24,
        "contract": "contracts/Minter.sol:FueliPicliMinter",
        "label": "_roles",
        "offset": 0,
        "slot": "0",
        "type": "t_mapping(t_bytes32,t_struct(RoleData)19_storage)"
      },
      {
        "astId": 1702,
        "contract": "contracts/Minter.sol:FueliPicliMinter",
        "label": "fueli",
        "offset": 0,
        "slot": "1",
        "type": "t_contract(IFueli)1657"
      },
      {
        "astId": 1705,
        "contract": "contracts/Minter.sol:FueliPicliMinter",
        "label": "picli",
        "offset": 0,
        "slot": "2",
        "type": "t_contract(IPicli)1682"
      },
      {
        "astId": 1707,
        "contract": "contracts/Minter.sol:FueliPicliMinter",
        "label": "treasury",
        "offset": 0,
        "slot": "3",
        "type": "t_address"
      }
    ],
    "types": {
      "t_address": {
        "encoding": "inplace",
        "label": "address",
        "numberOfBytes": "20"
      },
      "t_bool": {
        "encoding": "inplace",
        "label": "bool",
        "numberOfBytes": "1"
      },
      "t_bytes32": {
        "encoding": "inplace",
        "label": "bytes32",
        "numberOfBytes": "32"
      },
      "t_contract(IFueli)1657": {
        "encoding": "inplace",
        "label": "contract IFueli",
        "numberOfBytes": "20"
      },
      "t_contract(IPicli)1682": {
        "encoding": "inplace",
        "label": "contract IPicli",
        "numberOfBytes": "20"
      },
      "t_mapping(t_address,t_bool)": {
        "encoding": "mapping",
        "key": "t_address",
        "label": "mapping(address => bool)",
        "numberOfBytes": "32",
        "value": "t_bool"
      },
      "t_mapping(t_bytes32,t_struct(RoleData)19_storage)": {
        "encoding": "mapping",
        "key": "t_bytes32",
        "label": "mapping(bytes32 => struct AccessControl.RoleData)",
        "numberOfBytes": "32",
        "value": "t_struct(RoleData)19_storage"
      },
      "t_struct(RoleData)19_storage": {
        "encoding": "inplace",
        "label": "struct AccessControl.RoleData",
        "members": [
          {
            "astId": 16,
            "contract": "contracts/Minter.sol:FueliPicliMinter",
            "label": "members",
            "offset": 0,
            "slot": "0",
            "type": "t_mapping(t_address,t_bool)"
          },
          {
            "astId": 18,
            "contract": "contracts/Minter.sol:FueliPicliMinter",
            "label": "adminRole",
            "offset": 0,
            "slot": "1",
            "type": "t_bytes32"
          }
        ],
        "numberOfBytes": "64"
      }
    }
  }
}